01REMESSA01COBRANCA       00000000000000463376OBRAS SOCIAIS DO PADRE GERALDO237BRADESCO       050515        MX0000009                                                                                                                                                                                                                                                                                     000001
1000000000000000000000090677700022411                         0000000000000001710000000000002            2  021710      010615000000000000000000000NTN050515000000000000000000000000000000000000000000000000000000000000000100000000000001VITOR FERREIRA RODRIGUES                RUA ACADEMICO JOSE LUIZ, N 185 0 AEROPOR            28300000                                                            000002
1000000000000000000000090677700022411                         0000000000000001711900000000002            2  021711      010615000000000000000000000NTN050515000000000000000000000000000000000000000000000000000000000000000100000000000001ANA MAGANHA GUALANDI                    AVENIDA EUCLIDES POUBEL DE LIMA, N 644 0            28300000                                                            000003
1000000000000000000000090677700022411                         0000000000000001712700000000002            2  021712      010615000000000000000000000NTN050515000000000000000000000000000000000000000000000000000000000000000100000000000001ANA ALVES PIRES                         RUA CARMÉLIA DURAND, N 196 0 GUARITÁ ITA            28300000                                                            000004
1000000000000000000000090677700022411                         0000000000000001713500000000002            2  021713      010615000000000000000000000NTN050515000000000000000000000000000000000000000000000000000000000000000100000000000001BRUNA COSTA FERREIRA                    RUA SEBASTIÃO VASCONCELOS, N 177 0 VINHO            28300000                                                            000005
1000000000000000000000090677700022411                         0000000000000001714300000000002            2  021714      010615000000000000000000000NTN050515000000000000000000000000000000000000000000000000000000000000000100000000000001BENEGENINA S. RODRIGUES                 RUA SALUSTIANO FERREIRA BRAGA, N 687 0 G            28300000                                                            000006
1000000000000000000000090677700022411                         0000000000000001715100000000002            2  021715      010615000000000000000000000NTN050515000000000000000000000000000000000000000000000000000000000000000100000000000001CARMEM LÚCIA SILVA DE MELO              AVENIDA EUCLIDES POUBEL DE LIMA, N 144 A            2830000                                                             000007
1000000000000000000000090677700022411                         0000000000000001716P00000000002            2  021716      010615000000000000000000000NTN050515000000000000000000000000000000000000000000000000000000000000000100000000000001CERLI ROSA BARBOSA                      RUA VINHOSA 0 VINHOSA ITAPERUNA RJ                  28300000                                                            000008
1000000000000000000000090677700022411                         0000000000000001717800000000002            2  021717      010615000000000000000000000NTN050515000000000000000000000000000000000000000000000000000000000000000100000000000001CARLOS AMARO SACHE RABELLO              RUA ELIANE ANDRADE MANTAVANI, N 42 0 VIN            28300000                                                            000009
1000000000000000000000090677700022411                         0000000000000001718600000000002            2  021718      010615000000000000000000000NTN050515000000000000000000000000000000000000000000000000000000000000000100000000000001CINIRA COSTA BRANCO                     RUA VINHOSA, N 469 0 VINHOSA ITAPERUNA R            28300000                                                            000010
1000000000000000000000090677700022411                         0000000000000001719400000000002            2  021719      010615000000000000000000000NTN050515000000000000000000000000000000000000000000000000000000000000000100000000000001EDHEMARA FERREIRA ARANTES               RUA INTENDENTE FRANCLIN RABELLO, N 43 0             28380000                                                            000011
1000000000000000000000090677700022411                         0000000000000001720800000000002            2  021720      010615000000000000000000000NTN050515000000000000000000000000000000000000000000000000000000000000000100000000000001MARLICE RABELLO ALONSO                  RUA NOSSA SRA. DA NATIVIDADE, N 08 0 CEN            28380000                                                            000012
1000000000000000000000090677700022411                         0000000000000001721600000000002            2  021721      010615000000000000000000000NTN050515000000000000000000000000000000000000000000000000000000000000000100000000000001GLEYCIANE DE OLIVEIRA DIAS              RUA CAMÉLIA DURAND, N 129 0 GUARITÁ ITAP            28300000                                                            000013
1000000000000000000000090677700022411                         0000000000000001722400000000002            2  021722      010615000000000000000000000NTN050515000000000000000000000000000000000000000000000000000000000000000100000000000001CELINA FERREIRA MACHADO                 RUA MARECHAL RONDON, N 278 0 VINHOSA ITA            28300000                                                            000014
1000000000000000000000090677700022411                         0000000000000001723200000000002            2  021723      010615000000000000000000000NTN050515000000000000000000000000000000000000000000000000000000000000000100000000000001CECILIA BARTOLAZZI DEGLI ESPOSTI        AVENIDA EUCLIDES POUBEL DE LIMA, N 611 0            28300000                                                            000015
1000000000000000000000090677700022411                         0000000000000001724000000000002            2  021724      010615000000000000000000000NTN050515000000000000000000000000000000000000000000000000000000000000000100000000000001CARLOS ROBERTO BRAMBILA DE OLIVEIRA     AVENIDA EUCLIDES POUBEL DE LIMA, N 587 0            28300000                                                            000016
1000000000000000000000090677700022411                         0000000000000001725900000000002            2  021725      010615000000000000000000000NTN050515000000000000000000000000000000000000000000000000000000000000000100000000000001CELIA REGINA ABRAÃO DORNELAS            RUA SEBASTIANA FERREIRA, N 287 0 GUARITÁ            28300000                                                            000017
1000000000000000000000090677700022411                         0000000000000001726700000000002            2  021726      010615000000000000000000000NTN050515000000000000000000000000000000000000000000000000000000000000000100000000000001DANIEL MONTEIRO DE OLIVEIRA             RUA CARMO FRANCISCO TOMAZINE, N 76 0 GUA            28300000                                                            000018
1000000000000000000000090677700022411                         0000000000000001727500000000002            2  021727      010615000000000000000000000NTN050515000000000000000000000000000000000000000000000000000000000000000100000000000001EDITH LOPES PAULA                       RUA BENEDITO NICOLAU, N 94 0 VINHOSA ITA            28300000                                                            000019
1000000000000000000000090677700022411                         0000000000000001728300000000002            2  021728      010615000000000000000000000NTN050515000000000000000000000000000000000000000000000000000000000000000100000000000001EDNA LOPES DA SILVA                     RUA JOÃO BOECHAT FILHO, N 46 0 VINHOSA I            28300000                                                            000020
1000000000000000000000090677700022411                         0000000000000001729100000000002            2  021729      010615000000000000000000000NTN050515000000000000000000000000000000000000000000000000000000000000000100000000000001EZEQUIEL CRUZ DA SILVA                  AVENIDA EUCLIDES POUBEL DE LIMA, N 622 0            28300000                                                            000021
1000000000000000000000090677700022411                         0000000000000001730500000000002            2  021730      010615000000000000000000000NTN050515000000000000000000000000000000000000000000000000000000000000000100000000000001FLÁVIO BORGES COELHO                    RUA JOSÉ MARIA DA GAMA, N 1581 0 SÃO MAT            28300000                                                            000022
1000000000000000000000090677700022411                         0000000000000001731300000000002            2  021731      010615000000000000000000000NTN050515000000000000000000000000000000000000000000000000000000000000000100000000000001HONÓRIO GECY                            AVENIDA EUCLIDES PUBEL DE LIMA, N 639 0             28300000                                                            000023
1000000000000000000000090677700022411                         0000000000000001732100000000002            2  021732      010615000000000000000000000NTN050515000000000000000000000000000000000000000000000000000000000000000100000000000001ISOLINA FOLIGNO FERREIRA                AVENIDA EUCLIDES PUBEL DE LIMA, N 200 0             28300000                                                            000024
1000000000000000000000090677700022411                         0000000000000001733P00000000002            2  021733      010615000000000000000000000NTN050515000000000000000000000000000000000000000000000000000000000000000100000000000001ILDA LOPES CORRÊA                       RUA JOSÉ MARIA DA GAMA, N 1659 0 SÃO MAT            28300000                                                            000025
1000000000000000000000090677700022411                         0000000000000001734800000000002            2  021734      010615000000000000000000000NTN050515000000000000000000000000000000000000000000000000000000000000000100000000000001ISABEL BEIRAL SATOLO                    AVENIDA EUCLIDES PUBEL DE LIMA, N 815 0             28300000                                                            000026
1000000000000000000000090677700022411                         0000000000000001735600000000002            2  021735      010615000000000000000000000NTN050515000000000000000000000000000000000000000000000000000000000000000100000000000001JOAQUIM GUALANDI                        AVENIDA EUCLIDES POUBEL DE LIMA, N 861 0            28300000                                                            000027
1000000000000000000000090677700022411                         0000000000000001736400000000002            2  021736      010615000000000000000000000NTN050515000000000000000000000000000000000000000000000000000000000000000100000000000001JOÃO BATISTA GUALANDI                   AVENIDA EUCLIDES POUBEL DE LIMA, N 815 0            28300000                                                            000028
1000000000000000000000090677700022411                         0000000000000001737200000000002            2  021737      010615000000000000000000000NTN050515000000000000000000000000000000000000000000000000000000000000000100000000000001JÚLIO CÉSAR DE S. GONÇALVES             RUA SALESTIANO, N 691 0 GUARITÁ ITAPERUN            28300000                                                            000029
1000000000000000000000090677700022411                         0000000000000001738000000000002            2  021738      010615000000000000000000000NTN050515000000000000000000000000000000000000000000000000000000000000000100000000000001JOÃO EVANGELISTA                        AVENIDA EUCLIDES POUBEL DE LIMA, N 644 0            28300000                                                            000030
1000000000000000000000090677700022411                         0000000000000001739900000000002            2  021739      010615000000000000000000000NTN050515000000000000000000000000000000000000000000000000000000000000000100000000000001JOÃO BATISTA                            AVENIDA EUCLIDES POUBEL DE LIMA, N 611 0            28300000                                                            000031
1000000000000000000000090677700022411                         0000000000000001740200000000002            2  021740      010615000000000000000000000NTN050515000000000000000000000000000000000000000000000000000000000000000100000000000001JOSÉ DEGLI ESPOSTI                      AVENIDA EUCLIDES POUBEL DE LIMA, N 611 0            28300000                                                            000032
1000000000000000000000090677700022411                         0000000000000001741000000000002            2  021741      010615000000000000000000000NTN050515000000000000000000000000000000000000000000000000000000000000000100000000000001JÉSSICA ANDOLPH BORGAT                  RUA JOÃO EMÍLIO BOECHAT, N 198 0 VINHOSA            28300000                                                            000033
1000000000000000000000090677700022411                         0000000000000001742900000000002            2  021742      010615000000000000000000000NTN050515000000000000000000000000000000000000000000000000000000000000000100000000000001LUIZA MARIA RABELLO ALONSO              RUA NOSSA SRA. DA NATIVIDADE, N 08 0 CEN            28380000                                                            000034
1000000000000000000000090677700022411                         0000000000000001743700000000002            2  021743      010615000000000000000000000NTN050515000000000000000000000000000000000000000000000000000000000000000100000000000001LUIZ CARLOS BORGATH                     RUA JOÃO EMÍLIO BOECHAT, N 198 0 VINHOSA            28300000                                                            000035
1000000000000000000000090677700022411                         0000000000000001744500000000002            2  021744      010615000000000000000000000NTN050515000000000000000000000000000000000000000000000000000000000000000100000000000001LUIZ CARLOS PEREIRA DE SOUZA            RUA ERNESTINA GOMES, N 227 0 VINHOSA ITA            28300000                                                            000036
1000000000000000000000090677700022411                         0000000000000001745300000000002            2  021745      010615000000000000000000000NTN050515000000000000000000000000000000000000000000000000000000000000000100000000000001LARA ROBERTA GENTILUCI DE OLIVEIRA      AVENIDA EUCLIDES PUBEL DE LIMA, N 639 0             28300000                                                            000037
1000000000000000000000090677700022411                         0000000000000001746100000000002            2  021746      010615000000000000000000000NTN050515000000000000000000000000000000000000000000000000000000000000000100000000000001LIA MARCIA C. FERREIRA                  RUA SEBASTIÃO VASCONCELOS, N 177 0 VINHO            28300000                                                            000038
1000000000000000000000090677700022411                         0000000000000001747P00000000002            2  021747      010615000000000000000000000NTN050515000000000000000000000000000000000000000000000000000000000000000100000000000001LUIZ CLAUDIO DA SILVA DEGLI ESPOSTI     RUA DELMA TAVARES, N 120 0 GUARITÁ ITAPE            28300000                                                            000039
1000000000000000000000090677700022411                         0000000000000001748800000000002            2  021748      010615000000000000000000000NTN050515000000000000000000000000000000000000000000000000000000000000000100000000000001MARIA CELESTE DOS SANTOS SILVA          RUA GEORGINO DUTRA WERNECH, N 22 0 AREIÃ            2830000                                                             000040
1000000000000000000000090677700022411                         0000000000000001749600000000002            2  021749      010615000000000000000000000NTN050515000000000000000000000000000000000000000000000000000000000000000100000000000001ILIZETE MARIA DE MORAES                 RUA GERALDO JOSÉ DA SILVA, N 42 0 LIBERD            28380000                                                            000041
1000000000000000000000090677700022411                         0000000000000001750P00000000002            2  021750      010615000000000000000000000NTN050515000000000000000000000000000000000000000000000000000000000000000100000000000001MARIA MADALENA TIRADENTES               AVENIDA EUCLIDES POUBEL DE LIMA, N 815 0            28300000                                                            000042
1000000000000000000000090677700022411                         0000000000000001751800000000002            2  021751      010615000000000000000000000NTN050515000000000000000000000000000000000000000000000000000000000000000100000000000001MARIA DO CARMO BÂNDOLI CARVALHO         RUA VINHOSA, N 350 0 VINHOSA ITAPERUNA R            28300000                                                            000043
1000000000000000000000090677700022411                         0000000000000001752600000000002            2  021752      010615000000000000000000000NTN050515000000000000000000000000000000000000000000000000000000000000000100000000000001MARIA MAGALHÃES DA SILVA                RUA ROSENIL TEIXEIRA DE SOUZA, N 130 0 V            28300000                                                            000044
1000000000000000000000090677700022411                         0000000000000001753400000000002            2  021753      010615000000000000000000000NTN050515000000000000000000000000000000000000000000000000000000000000000100000000000001MARNY DE SOUZA FERNANDES                AVENIDA EUCLIDES PUBEL DE LIMA, N 478 0             28300000                                                            000045
1000000000000000000000090677700022411                         0000000000000001754200000000002            2  021754      010615000000000000000000000NTN050515000000000000000000000000000000000000000000000000000000000000000100000000000001MABEL TOMAZIM DE O. BORGES COELHO       RUA JOSÉ MARIA DA GAMA, N 1581 0 SÃO MAT            28300000                                                            000046
1000000000000000000000090677700022411                         0000000000000001755000000000002            2  021755      010615000000000000000000000NTN050515000000000000000000000000000000000000000000000000000000000000000100000000000001MARIA ELÍDIA GENTILUCE                  AVENIDA EUCLIDES POUBEL DE LIMA, N 639 0            28300000                                                            000047
1000000000000000000000090677700022411                         0000000000000001756900000000002            2  021756      010615000000000000000000000NTN050515000000000000000000000000000000000000000000000000000000000000000100000000000001MARIA HELENA DE MORAES VARGAS           RUA ASTOLFO MUNIZ, N 114 0 SÃO MATEUS IT            28300000                                                            000048
1000000000000000000000090677700022411                         0000000000000001757700000000002            2  021757      010615000000000000000000000NTN050515000000000000000000000000000000000000000000000000000000000000000100000000000001MARIA DA CONCEIÇÃO L. PAULA             RUA BENEDITO NICOLAU, N 94 0 VINHOSA ITA            28300000                                                            000049
1000000000000000000000090677700022411                         0000000000000001758500000000002            2  021758      010615000000000000000000000NTN050515000000000000000000000000000000000000000000000000000000000000000100000000000001NATHALIA COSTA FERREIRA                 RUA SEBASTIÃO VASCONCELOS, N 177 0 VINHO            28300000                                                            000050
1000000000000000000000090677700022411                         0000000000000001759300000000002            2  021759      010615000000000000000000000NTN050515000000000000000000000000000000000000000000000000000000000000000100000000000001NELCY CORRÊA FERNANDES                  AVENIDA EUCLIDES POUBEL DE LIMA, N 478 0            28300000                                                            000051
1000000000000000000000090677700022411                         0000000000000001760700000000002            2  021760      010615000000000000000000000NTN050515000000000000000000000000000000000000000000000000000000000000000100000000000001NÍVIA LOPES PAULA                       RUA BENEDITO NICOLAU, N 94 0 VINHOSA ITA            28300000                                                            000052
1000000000000000000000090677700022411                         0000000000000001761500000000002            2  021761      010615000000000000000000000NTN050515000000000000000000000000000000000000000000000000000000000000000100000000000001PAULO ROBERTO A. ROHEM JUNIOR           RUA JÚLIO CÉZAR, N 1259 0 SÃO MATEUS ITA            28300000                                                            000053
1000000000000000000000090677700022411                         0000000000000001762300000000002            2  021762      010615000000000000000000000NTN050515000000000000000000000000000000000000000000000000000000000000000100000000000001PAULO FOLIGNO FERREIRA                  RUA SEBASTÃO VASCONCELOS, N 192 0 VINHOS            28300000                                                            000054
1000000000000000000000090677700022411                         0000000000000001763100000000002            2  021763      010615000000000000000000000NTN050515000000000000000000000000000000000000000000000000000000000000000100000000000001PAULO CÉZAR DA SILVA                    RUA ROSENIL T. DE SOUZA, N 130 0 VINHOSA            28300000                                                            000055
1000000000000000000000090677700022411                         0000000000000001764P00000000002            2  021764      010615000000000000000000000NTN050515000000000000000000000000000000000000000000000000000000000000000100000000000001ROSIMERE CRISTINA MUNIZ                 RUA SEBASTIÃO VASCONCELOS, N 299 0 VINHO            28300000                                                            000056
1000000000000000000000090677700022411                         0000000000000001765800000000002            2  021765      010615000000000000000000000NTN050515000000000000000000000000000000000000000000000000000000000000000100000000000001SILVANA LOPES PAULA                     RUA BENEDITO NICOLAU, N 94 0 VINHOSA ITA            28300000                                                            000057
1000000000000000000000090677700022411                         0000000000000001766600000000002            2  021766      010615000000000000000000000NTN050515000000000000000000000000000000000000000000000000000000000000000100000000000001TALITA FINAMORE OLIVEIRA                RUA SEBASTIÃO VASCONCELOS, N 299 0 VINHO            28300000                                                            000058
1000000000000000000000090677700022411                         0000000000000001767400000000002            2  021767      010615000000000000000000000NTN050515000000000000000000000000000000000000000000000000000000000000000100000000000001VAMIR GALVÃO DA FRANÇA                  RUA LINDOLFO FERREIRA BRANCO, N 26 0 VIN            28300000                                                            000059
1000000000000000000000090677700022411                         0000000000000001768200000000002            2  021768      010615000000000000000000000NTN050515000000000000000000000000000000000000000000000000000000000000000100000000000001CILAINE FERREIRA DA SILVA               RUA ERNESTINO GOMES, N 54 0 VINHOSA ITAP            28300000                                                            000060
1000000000000000000000090677700022411                         0000000000000001769000000000002            2  021769      010615000000000000000000000NTN050515000000000000000000000000000000000000000000000000000000000000000100000000000001SIMARA VIEIRA DE OLIVEIRA               RUA JOAQUIM CAETANO QUERES, N 136 0 GUAR            28300000                                                            000061
1000000000000000000000090677700022411                         0000000000000001770400000000002            2  021770      010615000000000000000000000NTN050515000000000000000000000000000000000000000000000000000000000000000100000000000001MARIA LUZIÊ F. GONÇALVES DA CRUZ        RUA FRANCISCO FREITAS, N 354 FUNDOS 0 GU            28300000                                                            000062
1000000000000000000000090677700022411                         0000000000000001771200000000002            2  021771      010615000000000000000000000NTN050515000000000000000000000000000000000000000000000000000000000000000100000000000001ROSANE MARIA OLIVEIRA DIAS              RUA CARMÉLIA DURAND, N 129 0 GUARITÁ ITA            28300000                                                            000063
1000000000000000000000090677700022411                         0000000000000001772000000000002            2  021772      010615000000000000000000000NTN050515000000000000000000000000000000000000000000000000000000000000000100000000000001ROSILDA SAINT ' CLAIRDE MORAIS          RUA ASTOLFO FASBENDER, N 121 0 VINHOSA I            28300000                                                            000064
1000000000000000000000090677700022411                         0000000000000001773900000000002            2  021773      010615000000000000000000000NTN050515000000000000000000000000000000000000000000000000000000000000000100000000000001RUTH IRENE PEREIRA CRUZ                 AVENIDA EUCLIDES POUBEL DE LIMA, N 563 0            28300000                                                            000065
1000000000000000000000090677700022411                         0000000000000001774700000000002            2  021774      010615000000000000000000000NTN050515000000000000000000000000000000000000000000000000000000000000000100000000000001SÔNIA DE FÁTIMA DEGLI ESPOSTI           RUA JAIR SILVA DE SOUZA, N 175 0 GUARITÁ            28300000                                                            000066
1000000000000000000000090677700022411                         0000000000000001775500000000002            2  021775      010615000000000000000000000NTN050515000000000000000000000000000000000000000000000000000000000000000100000000000001SILMEIA DE OLIVEIRA PAULA               RUA BENEDITO NICOLAU, N 88 0 VINHOSA ITA            28300000                                                            000067
1000000000000000000000090677700022411                         0000000000000001776300000000002            2  021776      010615000000000000000000000NTN050515000000000000000000000000000000000000000000000000000000000000000100000000000001SAULO GENTILUCI DE OLIVEIRA             AVENIDA EUCLIDES POUBEL DE LIMA, N 639 0            28300000                                                            000068
1000000000000000000000090677700022411                         0000000000000001777100000000002            2  021777      010615000000000000000000000NTN050515000000000000000000000000000000000000000000000000000000000000000100000000000001SOLANGE LOPES PAULA                     RUA BENEDITO NICOLAU, N 94 0 VINHOSA ITA            28300000                                                            000069
1000000000000000000000090677700022411                         0000000000000001778P00000000002            2  021778      010615000000000000000000000NTN050515000000000000000000000000000000000000000000000000000000000000000100000000000001LUCIANA SOARES P. DEGLI ESPOSTI         RUA JAIR SILVA SOUZA, N 175 0 GUARITÁ IT            28300000                                                            000070
1000000000000000000000090677700022411                         0000000000000001779800000000002            2  021779      010615000000000000000000000NTN050515000000000000000000000000000000000000000000000000000000000000000100000000000001LEILA MARIA FERNANDES DE SOUZA          RUA JOEL BERNARDO, N 50 0 GUARITÁ ITAPER            28300000                                                            000071
1000000000000000000000090677700022411                         0000000000000001780100000000002            2  021780      010615000000000000000000000NTN050515000000000000000000000000000000000000000000000000000000000000000100000000000001SOLANGE MARIA DOS REIS MARTINS          RUA IEDA VIEIRA DA GAMA, N 99 ALTOS 0 VI            28300000                                                            000072
1000000000000000000000090677700022411                         0000000000000001781P00000000002            2  021781      010615000000000000000000000NTN050515000000000000000000000000000000000000000000000000000000000000000100000000000001JONAS FOLIGNO FERREIRA                  AVENIDA EUCLIDES POUBEL DE LIMA, N 350 A            28300000                                                            000073
1000000000000000000000090677700022411                         0000000000000001782800000000002            2  021782      010615000000000000000000000NTN050515000000000000000000000000000000000000000000000000000000000000000100000000000001LUIZ ANTÔNIO DE SOUZA                   RUA SEBATIÃO VASCONCELOS, N 279 FUNDOS 0            28300000                                                            000074
1000000000000000000000090677700022411                         0000000000000001783600000000002            2  021783      010615000000000000000000000NTN050515000000000000000000000000000000000000000000000000000000000000000100000000000001ANA PAULA DA SILVA DEGLI ESPOSTI MARQUESRUA ARISTIDES GOMES DO AMORIM, N 542 0 V            28300000                                                            000075
1000000000000000000000090677700022411                         0000000000000001784400000000002            2  021784      010615000000000000000000000NTN050515000000000000000000000000000000000000000000000000000000000000000100000000000001ANTÔNIO CLARET PURIFICATE               RUA VITOR GOLDINHO SAVAN, N 560 0 VALE D            28300000                                                            000076
1000000000000000000000090677700022411                         0000000000000001785200000000002            2  021785      010615000000000000000000000NTN050515000000000000000000000000000000000000000000000000000000000000000100000000000001ALEXANDRE ALVES FONTES                  RUA TOMÉ DE SOUZA, N 313 0 BOA FORTUNA I            28300000                                                            000077
1000000000000000000000090677700022411                         0000000000000001786000000000002            2  021786      010615000000000000000000000NTN050515000000000000000000000000000000000000000000000000000000000000000100000000000001ALEXANDRO G. PURIFICATE                 RUA GIL VIEIRA, N 1196 0 VALE DO SOL ITA            28300000                                                            000078
1000000000000000000000090677700022411                         0000000000000001787900000000002            2  021787      010615000000000000000000000NTN050515000000000000000000000000000000000000000000000000000000000000000100000000000001BRUNA BAUER CORREA DA CRUZ              RUA FRANCISCO FREITAS RABELO, N 213 0 AE            28300000                                                            000079
1000000000000000000000090677700022411                         0000000000000001788700000000002            2  021788      010615000000000000000000000NTN050515000000000000000000000000000000000000000000000000000000000000000100000000000001CELIO RUBENS DA SILVA                   RUA GIL VIEIRA LEITE, N 1196 0 VALE DO S            28300000                                                            000080
1000000000000000000000090677700022411                         0000000000000001789500000000002            2  021789      010615000000000000000000000NTN050515000000000000000000000000000000000000000000000000000000000000000100000000000001ÉDIMO DA SILVA FERREIRA                 RUA MOACIR SOARES FARIAS, N 908 0 BOA FO            28300000                                                            000081
1000000000000000000000090677700022411                         0000000000000001790900000000002            2  021790      010615000000000000000000000NTN050515000000000000000000000000000000000000000000000000000000000000000100000000000001FERNANDA MARIA DE OLIVEIRA VILELA       RUA JOSÉ DO PATROCÍNIO, N 205 0 BOA FORT            28300000                                                            000082
1000000000000000000000090677700022411                         0000000000000001791700000000002            2  021791      010615000000000000000000000NTN050515000000000000000000000000000000000000000000000000000000000000000100000000000001GERALDA MARIA DE JESUS FONSECA          AVENIDA BOA FORTUNA, N 391 0 BOA FORTUNA            28300000                                                            000083
1000000000000000000000090677700022411                         0000000000000001792500000000002            2  021792      010615000000000000000000000NTN050515000000000000000000000000000000000000000000000000000000000000000100000000000001GABRIEL FONSECA VILELA                  RUA JOSÉ DO PATROCÍNIO, N 205 0 BOA FORT            28300000                                                            000084
1000000000000000000000090677700022411                         0000000000000001793300000000002            2  021793      010615000000000000000000000NTN050515000000000000000000000000000000000000000000000000000000000000000100000000000001ISABEL RABELLO ALONSO                   RUA NOSSA SRA. DA NATIVIDADE, N 08 0 CEN            28300000                                                            000085
1000000000000000000000090677700022411                         0000000000000001794100000000002            2  021794      010615000000000000000000000NTN050515000000000000000000000000000000000000000000000000000000000000000100000000000001HÉLIO ALVES CARDOSO                     AVENIDA BOA FORTUNA, N 825 0 BOA FORTUNA            28300000                                                            000086
1000000000000000000000090677700022411                         0000000000000001795P00000000002            2  021795      010615000000000000000000000NTN050515000000000000000000000000000000000000000000000000000000000000000100000000000001HEMERSON SILVEIRA DOS SANTOS            RUA ADELINO GARCIA, N 291 0 BOA FORTUNA             28300000                                                            000087
1000000000000000000000090677700022411                         0000000000000001796800000000002            2  021796      010615000000000000000000000NTN050515000000000000000000000000000000000000000000000000000000000000000100000000000001JACINTA DE AZEVEDO C. FONTES            RUA TOMÉ DE SOUZA, N 313 0 BOA FORTUNA I            28300000                                                            000088
1000000000000000000000090677700022411                         0000000000000001797600000000002            2  021797      010615000000000000000000000NTN050515000000000000000000000000000000000000000000000000000000000000000100000000000001JOÃO DUTRA FERNANDES                    RUA MOACIR S. DE FARIAS, N 908 0 BOA FOR            28300000                                                            000089
1000000000000000000000090677700022411                         0000000000000001798400000000002            2  021798      010615000000000000000000000NTN050515000000000000000000000000000000000000000000000000000000000000000100000000000001JOSILENE APARECIDA S. FERNANDES         RUA MOACIR SOARES DE FARIAS, N 908 0 BOA            28300000                                                            000090
1000000000000000000000090677700022411                         0000000000000001799200000000002            2  021799      010615000000000000000000000NTN050515000000000000000000000000000000000000000000000000000000000000000100000000000001JOÃO CARLOS XAVIER BATISTA              AVENIDA BOA FORTUNA, N 391 0 BOA FORTUNA            28300000                                                            000091
1000000000000000000000090677700022411                         0000000000000001800P00000000002            2  021800      010615000000000000000000000NTN050515000000000000000000000000000000000000000000000000000000000000000100000000000001JOÃO BATISTA RODRIGUES                  AVENIDA BOA FORTUNA, N 391 0 BOA FORTUNA            28300000                                                            000092
1000000000000000000000090677700022411                         0000000000000001801800000000002            2  021801      010615000000000000000000000NTN050515000000000000000000000000000000000000000000000000000000000000000100000000000001LUCIENE ZANON JACOMINO OLIVEIRA         RUA ADELINO G. BASTOS, N 291 0 BOA FORTU            28300000                                                            000093
1000000000000000000000090677700022411                         0000000000000001802600000000002            2  021802      010615000000000000000000000NTN050515000000000000000000000000000000000000000000000000000000000000000100000000000001MARCELA DE FÁTIMA JACOMINI DE OLIVEIRA  RUA ADELINO GARCIA BASTOS, N 291 0 BOA F            28300000                                                            000094
1000000000000000000000090677700022411                         0000000000000001803400000000002            2  021803      010615000000000000000000000NTN050515000000000000000000000000000000000000000000000000000000000000000100000000000001MARIA JOSÉ ALVES FARIAS CARDOSO         AVENIDA BOA FORTUNA, N 825 0 BOA FORTUNA            28300000                                                            000095
1000000000000000000000090677700022411                         0000000000000001804200000000002            2  021804      010615000000000000000000000NTN050515000000000000000000000000000000000000000000000000000000000000000100000000000001MARIA ELZIRA DE O. AMARAL               RUA FRANCISCO FARIAS, N 41 0 VALE DO SOL            28300000                                                            000096
1000000000000000000000090677700022411                         0000000000000001805000000000002            2  021805      010615000000000000000000000NTN050515000000000000000000000000000000000000000000000000000000000000000100000000000001MARCIA CRISTINA JACOMINO DE OLIVEIRA    RUA ADELINO GARCIA BASTOS, N 291 0 BOA F            28300000                                                            000097
1000000000000000000000090677700022411                         0000000000000001806900000000002            2  021806      010615000000000000000000000NTN050515000000000000000000000000000000000000000000000000000000000000000100000000000001MÔNICA FARIA CARDOSO                    AVENIDA BOA FORTUNA, N 825 0 BOA FORTUNA            28300000                                                            000098
1000000000000000000000090677700022411                         0000000000000001807700000000002            2  021807      010615000000000000000000000NTN050515000000000000000000000000000000000000000000000000000000000000000100000000000001NILDA MARIA PURIFICATE                  RUA VITOR GOLDINHO, N 560 0 VALE DO SOL             28300000                                                            000099
1000000000000000000000090677700022411                         0000000000000001808500000000002            2  021808      010615000000000000000000000NTN050515000000000000000000000000000000000000000000000000000000000000000100000000000001OSWALDO EUFLAZIO JACOMINO               RUA ADELMO GARCIA BASTOS, N 291 0 BOA FO            28300000                                                            000100
1000000000000000000000090677700022411                         0000000000000001809300000000002            2  021809      010615000000000000000000000NTN050515000000000000000000000000000000000000000000000000000000000000000100000000000001ROSENI G. PUPO                          RUA GIL VIEIRA LEITE, N 1196 0 VALE DO S            28300000                                                            000101
1000000000000000000000090677700022411                         0000000000000001810700000000002            2  021810      010615000000000000000000000NTN050515000000000000000000000000000000000000000000000000000000000000000100000000000001SÔNIA MARIA XAVIER BATISTA              AVENIDA BOA FORTUNA, N 391 0 BOA FORTUNA            28300000                                                            000102
1000000000000000000000090677700022411                         0000000000000001811500000000002            2  021811      010615000000000000000000000NTN050515000000000000000000000000000000000000000000000000000000000000000100000000000001SAULO VIEIRA DE OLIVEIRA                RUA BENEDITO NICOLAU, N 613 0 SÃO MATEUS            28300000                                                            000103
1000000000000000000000090677700022411                         0000000000000001812300000000002            2  021812      010615000000000000000000000NTN050515000000000000000000000000000000000000000000000000000000000000000100000000000001VALÉRIA CRISTINA C. PURIFICATE          RUA GIL VIEIRA LEITE, N 1196 0 VALE DO S            28300000                                                            000104
1000000000000000000000090677700022411                         0000000000000001813100000000002            2  021813      010615000000000000000000000NTN050515000000000000000000000000000000000000000000000000000000000000000100000000000001NILSON CÉSAR DO NASCIMENTO PEREIRA      AVENIDA ADELINO GARCIA BASTOS, N 285 0 B            28300000                                                            000105
1000000000000000000000090677700022411                         0000000000000001814P00000000002            2  021814      010615000000000000000000000NTN050515000000000000000000000000000000000000000000000000000000000000000100000000000001CRISTINA VALÉRIA DA SILVA               RUA ACADÊMICO JOSÉ LUIZ, N 228 0 VALE DO            28300000                                                            000106
1000000000000000000000090677700022411                         0000000000000001815800000000002            2  021815      010615000000000000000000000NTN050515000000000000000000000000000000000000000000000000000000000000000100000000000001MARIA ISABEL DOS ANJOS PIRES FERREIRA   RUA VITOR GODINHO PAVAN, N 399 FUNDOS 0             28300000                                                            000107
1000000000000000000000090677700022411                         0000000000000001816600000000002            2  021816      010615000000000000000000000NTN050515000000000000000000000000000000000000000000000000000000000000000100000000000001LUCINÉIA LIMA DO NASCIMENTO             RUA ELZIO GALVÃO DA FRANÇA, N 10 ALTOS 0            28300000                                                            000108
1000000000000000000000090677700022411                         0000000000000001817400000000002            2  021817      010615000000000000000000000NTN050515000000000000000000000000000000000000000000000000000000000000000100000000000001LUIZA MARIA DA CRUZ DE PAULA            RUA SANTO ANTONIO, N 01 0 NOSSA SRA. DE             28380000                                                            000109
1000000000000000000000090677700022411                         0000000000000001818200000000002            2  021818      010615000000000000000000000NTN050515000000000000000000000000000000000000000000000000000000000000000100000000000001ALMIR JOSÉ FERNANDES                    SAMBRA 0 SAMBRA ITALVA RJ                           28250000                                                            000110
1000000000000000000000090677700022411                         0000000000000001819000000000002            2  021819      010615000000000000000000000NTN050515000000000000000000000000000000000000000000000000000000000000000100000000000001WEBSTER S. RODRIGUES                    RUA INDEPENDENCIA, N 123 0 CENTRO MURIAé            36880000                                                            000111
1000000000000000000000090677700022411                         0000000000000001820400000000002            2  021820      010615000000000000000000000NTN050515000000000000000000000000000000000000000000000000000000000000000100000000000001GEORGIA GONÇALVES PESSANHA              SAMBRA 0 SAMRA ITALVA RJ                            28250000                                                            000112
1000000000000000000000090677700022411                         0000000000000001821200000000002            2  021821      010615000000000000000000000NTN050515000000000000000000000000000000000000000000000000000000000000000100000000000001LEONARDO DUARTE TÊMPERA                 AV. EUCLIDES POUBEL DE LIMA, N 622 0 SÃO            28300000                                                            000113
1000000000000000000000090677700022411                         0000000000000001822000000000002            2  021822      010615000000000000000000000NTN050515000000000000000000000000000000000000000000000000000000000000000100000000000001RENATO JOSÉ D. E. DA SILVA              RUA PROJETADA COLIBRI, N 173 0 COLIBRI I            28300000                                                            000114
1000000000000000000000090677700022411                         0000000000000001823900000000002            2  021823      010615000000000000000000000NTN050515000000000000000000000000000000000000000000000000000000000000000100000000000001LUIZ MARCOS DE SOARES                   SAMBRA 0 SAMBRA ITALVA RJ                           28250000                                                            000115
1000000000000000000000090677700022411                         0000000000000001824700000000002            2  021824      010615000000000000000000000NTN050515000000000000000000000000000000000000000000000000000000000000000100000000000001ROMUALDO LOPES                          SAMBRA 0 SAMBRA ITALVA RJ                           28250000                                                            000116
1000000000000000000000090677700022411                         0000000000000001825500000000002            2  021825      010615000000000000000000000NTN050515000000000000000000000000000000000000000000000000000000000000000100000000000001LUCIENE DA COSTA MENDES BERNARDO        SAMBRA 0 SAMBRA ITALVA RJ                           28250000                                                            000117
1000000000000000000000090677700022411                         0000000000000001826300000000002            2  021826      010615000000000000000000000NTN050515000000000000000000000000000000000000000000000000000000000000000100000000000001HERMES FRANCISCO DE SOUZA               SAMBRA 0 SAMBRA ITALVA RJ                           28250000                                                            000118
1000000000000000000000090677700022411                         0000000000000001827100000000002            2  021827      010615000000000000000000000NTN050515000000000000000000000000000000000000000000000000000000000000000100000000000001CLARICE JOAQUINA DOS ANJOS MURITO       SAMBRA 0 SAMBRA ITALVA RJ                           28250000                                                            000119
1000000000000000000000090677700022411                         0000000000000001828P00000000002            2  021828      010615000000000000000000000NTN050515000000000000000000000000000000000000000000000000000000000000000100000000000001ADENOR GARCIA DA SILVA FILHO            SAMBRA 0 SAMBRA ITALVA RJ                           28250000                                                            000120
1000000000000000000000090677700022411                         0000000000000001829800000000002            2  021829      010615000000000000000000000NTN050515000000000000000000000000000000000000000000000000000000000000000100000000000001MARIUZA DE FÁTIMA SICÍDIO PINTO FERREIRASAMBRA 0 SAMBRA ITALVA RJ                           28250000                                                            000121
1000000000000000000000090677700022411                         0000000000000001830100000000002            2  021830      010615000000000000000000000NTN050515000000000000000000000000000000000000000000000000000000000000000100000000000001VERÔNICA ROSA DE SOUZA PULINÁRIO        SAMBRA 0 SAMBRA ITALVA RJ                           28250000                                                            000122
1000000000000000000000090677700022411                         0000000000000001831P00000000002            2  021831      010615000000000000000000000NTN050515000000000000000000000000000000000000000000000000000000000000000100000000000001VALMA ROSA DE SOUZA                     SAMBRA 0 SAMBRA ITALVA RJ                           28250000                                                            000123
1000000000000000000000090677700022411                         0000000000000001832800000000002            2  021832      010615000000000000000000000NTN050515000000000000000000000000000000000000000000000000000000000000000100000000000001IVANIR MENDES                           SAMBRA 0 SAMBRA ITALVA RJ                           28250000                                                            000124
1000000000000000000000090677700022411                         0000000000000001833600000000002            2  021833      010615000000000000000000000NTN050515000000000000000000000000000000000000000000000000000000000000000100000000000001PAULO SERGIO DE MELO SILVA              RUA MANOEL CORREIA, N 260 0 SÃO FRANCISC            28300000                                                            000125
1000000000000000000000090677700022411                         0000000000000001834400000000002            2  021834      010615000000000000000000000NTN050515000000000000000000000000000000000000000000000000000000000000000100000000000001RODRIGO DE MELO SILVA                   RUA JOSÉ BASTOS, N 46 0 NITERÓI ITAPERUN            28300000                                                            000126
1000000000000000000000090677700022411                         0000000000000001835200000000002            2  021835      010615000000000000000000000NTN050515000000000000000000000000000000000000000000000000000000000000000100000000000001CONSTRUITA                              NITERÓI 0 NITERÓI ITAPERUNA RJ                      28300000                                                            000127
1000000000000000000000090677700022411                         0000000000000001836000000000002            2  021836      010615000000000000000000000NTN050515000000000000000000000000000000000000000000000000000000000000000100000000000001CLÁUDIO ANTÔNIO RODRIGUES               RUA NOEMEA, N 136 0 MATADOURO ITAPERUNA             28300000                                                            000128
1000000000000000000000090677700022411                         0000000000000001837900000000002            2  021837      010615000000000000000000000NTN050515000000000000000000000000000000000000000000000000000000000000000100000000000001AGOSTINHO MARIA GUALANDI                ENTRADA DO COLIBRI, N 30 0 COLIBRI ITAPE            28300000                                                            000129
1000000000000000000000090677700022411                         0000000000000001838700000000002            2  021838      010615000000000000000000000NTN050515000000000000000000000000000000000000000000000000000000000000000100000000000001REGINA ZANON JACOMINO GOMES             RUA PROJETADA COLIBRI, N 20 0 COLIBRI IT            28300000                                                            000130
1000000000000000000000090677700022411                         0000000000000001839500000000002            2  021839      010615000000000000000000000NTN050515000000000000000000000000000000000000000000000000000000000000000100000000000001MARIA DE FÁTIMA DEGLI ESPOSTI DA SILVA  RUA PROJETADA COLIBRI, N 173 0 COLIBRI I            28300000                                                            000131
1000000000000000000000090677700022411                         0000000000000001840900000000002            2  021840      010615000000000000000000000NTN050515000000000000000000000000000000000000000000000000000000000000000100000000000001RAIANE APARECIDA DEGLI ESPOSTI DA SILVA RUA PROJETADA COLIBRI, N 173 0 COLIBRI I            28300000                                                            000132
1000000000000000000000090677700022411                         0000000000000001841700000000002            2  021841      010615000000000000000000000NTN050515000000000000000000000000000000000000000000000000000000000000000100000000000001IRACY ANDOLPHI MACHARETH                RUA PROJETADA COLIBRI, N 30 0 COLIBRI IT            28300000                                                            000133
1000000000000000000000090677700022411                         0000000000000001842500000000002            2  021842      010615000000000000000000000NTN050515000000000000000000000000000000000000000000000000000000000000000100000000000001AMÉLIA GABRIEL DA SILVA                 RUA DELMA TAVARES DA COSTA, N  130 0 GUA            28300000                                                            000134
1000000000000000000000090677700022411                         0000000000000001843300000000002            2  021843      010615000000000000000000000NTN050515000000000000000000000000000000000000000000000000000000000000000100000000000001ELIAS DEGLI ESPOSTI GUALANDI            RUA FRANCISCO FREITAS, N 427 0 GUARITÁ I            28300000                                                            000135
1000000000000000000000090677700022411                         0000000000000001844100000000002            2  021844      010615000000000000000000000NTN050515000000000000000000000000000000000000000000000000000000000000000100000000000001IVANIR GALVÃO DA FRANÇA                 RUA LINDOLFO FERREIRA BRANCO, N 26 ALTOS            28300000                                                            000136
1000000000000000000000090677700022411                         0000000000000001845P00000000002            2  021845      010615000000000000000000000NTN050515000000000000000000000000000000000000000000000000000000000000000100000000000001GEILZA BOECHAT RAMIRO GOMES             AVENIDA CARMÉLIA DURAND, N 213 0 GUARITÁ            28300000                                                            000137
1000000000000000000000090677700022411                         0000000000000001846800000000002            2  021846      010615000000000000000000000NTN050515000000000000000000000000000000000000000000000000000000000000000100000000000001GUILHERME DEGLI ESPOSTI GUALANDI        RUA JOAQUIM CAETANO QUERES, N 171   APT:            28300000                                                            000138
1000000000000000000000090677700022411                         0000000000000001847600000000002            2  021847      010615000000000000000000000NTN050515000000000000000000000000000000000000000000000000000000000000000100000000000001GLAYDIS MALTA CALDAS                    RUA SALUSTIANO, N 691 0 GUARITÁ ITAPERUN            28300000                                                            000139
1000000000000000000000090677700022411                         0000000000000001848400000000002            2  021848      010615000000000000000000000NTN050515000000000000000000000000000000000000000000000000000000000000000100000000000001JOSÉ CARLOS ANDOLPHI MACHARETH          RUA SATURNINO GOMES, N 32 0 GUARITÁ ITAP            28300000                                                            000140
1000000000000000000000090677700022411                         0000000000000001849200000000002            2  021849      010615000000000000000000000NTN050515000000000000000000000000000000000000000000000000000000000000000100000000000001INAVIR GALVÃO DA FRANÇA                 RUA LINDOLFO FERREIRA BRANCO, 26 ALTOS 0            28300000                                                            000141
1000000000000000000000090677700022411                         0000000000000001850600000000002            2  021850      010615000000000000000000000NTN050515000000000000000000000000000000000000000000000000000000000000000100000000000001JOÃO BATISTA DEGLI ESPOSTI              RUA DELMA TAVARES, 120 0 GUARITÁ ITAPERU            28300000                                                            000142
1000000000000000000000090677700022411                         0000000000000001851400000000002            2  021851      010615000000000000000000000NTN050515000000000000000000000000000000000000000000000000000000000000000100000000000001JOÃO EUDES ALVES DE ALMEIDA             RUA JOAQUIM CAETANO QUERES, N 445 0 GUAR            28300000                                                            000143
1000000000000000000000090677700022411                         0000000000000001852200000000002            2  021852      010615000000000000000000000NTN050515000000000000000000000000000000000000000000000000000000000000000100000000000001JOSÉ AUGUSTO DEGLI ESPOSTI              RUA JOAQUIM CAETANO QUERES, N 632 0 GUAR            28300000                                                            000144
1000000000000000000000090677700022411                         0000000000000001853000000000002            2  021853      010615000000000000000000000NTN050515000000000000000000000000000000000000000000000000000000000000000100000000000001JOANA D' ARQUE DE O. CALDAS             RUA SALUSTIANOF. BRAGA, N 6911 0 GUARITÁ            28300000                                                            000145
1000000000000000000000090677700022411                         0000000000000001854900000000002            2  021854      010615000000000000000000000NTN050515000000000000000000000000000000000000000000000000000000000000000100000000000001MOZER PIMENTEL BUY                      RUA MARIA CECÍLIA NICOLAU, 198 0 SÃO MAT            28300000                                                            000146
1000000000000000000000090677700022411                         0000000000000001855700000000002            2  021855      010615000000000000000000000NTN050515000000000000000000000000000000000000000000000000000000000000000100000000000001LEIA DA SILVA DEGLI ESPOSTI             RUA DELMA TAVARES DA COSTA, N 120 0 GUAR            28300000                                                            000147
1000000000000000000000090677700022411                         0000000000000001856500000000002            2  021856      010615000000000000000000000NTN050515000000000000000000000000000000000000000000000000000000000000000100000000000001MARIA MARGARIDA DE OLIVEIRA SOUZA       RUA JOAQUIM CAETANO QUERES, N 405   APT:            28300000                                                            000148
1000000000000000000000090677700022411                         0000000000000001857300000000002            2  021857      010615000000000000000000000NTN050515000000000000000000000000000000000000000000000000000000000000000100000000000001MARTA APARECIDA DEGLI ESPOSTI GUALANDI  RUA JOAQUIM CAETANO QUERES, N 171 0 GUAR            28300000                                                            000149
1000000000000000000000090677700022411                         0000000000000001858100000000002            2  021858      010615000000000000000000000NTN050515000000000000000000000000000000000000000000000000000000000000000100000000000001MÔNICA ESTER GUALANDI                   RUA JOAQUIM CAETANO QUERES, N 382 0 GUAR            28300000                                                            000150
1000000000000000000000090677700022411                         0000000000000001859P00000000002            2  021859      010615000000000000000000000NTN050515000000000000000000000000000000000000000000000000000000000000000100000000000001HAMILTON MUNIZ DE FREITAS               RUA ALAGOAS, N 161 APTO 101 0 LIONS ITAP            28300000                                                            000151
1000000000000000000000090677700022411                         0000000000000001860300000000002            2  021860      010615000000000000000000000NTN050515000000000000000000000000000000000000000000000000000000000000000100000000000001NILZA HELENA PALOTTI                    RUA CARMO FRANCISCO TOMAZINE, N 22 0 GUA            28300000                                                            000152
1000000000000000000000090677700022411                         0000000000000001861100000000002            2  021861      010615000000000000000000000NTN050515000000000000000000000000000000000000000000000000000000000000000100000000000001ROSIMAR DEGLI ESPOSTI GUALANDI ALMEIDA  RUA JOAQUIM CAETANO QUERES, N 445 0 GUAR            28300000                                                            000153
1000000000000000000000090677700022411                         0000000000000001862P00000000002            2  021862      010615000000000000000000000NTN050515000000000000000000000000000000000000000000000000000000000000000100000000000001ROBSON CALDAS                           RUA SALUSTIANO F. BRAGA, N 691 0 GUARITÁ            28300000                                                            000154
1000000000000000000000090677700022411                         0000000000000001863800000000002            2  021863      010615000000000000000000000NTN050515000000000000000000000000000000000000000000000000000000000000000100000000000001REGINALDO DE OLIVEIRA CALDAS            RUA SALUSTIANO F. BRAGA, N 691 0 GUARITÁ            28300000                                                            000155
1000000000000000000000090677700022411                         0000000000000001864600000000002            2  021864      010615000000000000000000000NTN050515000000000000000000000000000000000000000000000000000000000000000100000000000001TERESINHA GUALANDI ROSA                 RUA JOAQUIM CAETANO QUERES, N 445 0 GUAR            28300000                                                            000156
1000000000000000000000090677700022411                         0000000000000001865400000000002            2  021865      010615000000000000000000000NTN050515000000000000000000000000000000000000000000000000000000000000000100000000000001WILZA MARIA G. MONTEIRO                 RUA CARMO FRANCISCO TOMAZINE, N 76 0 GUA            28300000                                                            000157
1000000000000000000000090677700022411                         0000000000000001866200000000002            2  021866      010615000000000000000000000NTN050515000000000000000000000000000000000000000000000000000000000000000100000000000001WELLINGTON GONÇALVES FIGUEIRA           RUA CAMÉLIA DURAND 0 GUARITÁ ITAPERUNA R            28300000                                                            000158
1000000000000000000000090677700022411                         0000000000000001867000000000002            2  021867      010615000000000000000000000NTN050515000000000000000000000000000000000000000000000000000000000000000100000000000001FERNANDO ANTÔNIO GUALANDI               RUA JOAQUIM CAETANO QUERES, N 93 0 GUARI            28300000                                                            000159
1000000000000000000000090677700022411                         0000000000000001868900000000002            2  021868      010615000000000000000000000NTN050515000000000000000000000000000000000000000000000000000000000000000100000000000001SUELEN APARECIDA DE OLIVEIRA            RUA JOAQUIM CAETANO QUERES, N 522 0 GUAR            28300000                                                            000160
1000000000000000000000090677700022411                         0000000000000001869700000000002            2  021869      010615000000000000000000000NTN050515000000000000000000000000000000000000000000000000000000000000000100000000000001RAFAEL ZANELLI LOPES                    RUA RUBENS GARCIA BASTOS, N 79 0 CEHAB I            28300000                                                            000161
1000000000000000000000090677700022411                         0000000000000001870000000000002            2  021870      010615000000000000000000000NTN050515000000000000000000000000000000000000000000000000000000000000000100000000000001RENATO VIANA MOREIRA                    RUA PROFESSORA IRINEIA, N 168 0 CEHAB IT            28300000                                                            000162
1000000000000000000000090677700022411                         0000000000000001871900000000002            2  021871      010615000000000000000000000NTN050515000000000000000000000000000000000000000000000000000000000000000100000000000001FILOMENA MARIA DE CASTRO                RUA JOSÉ MENDES MARTINS 0 CEHAB ITAPERUN            28300000                                                            000163
1000000000000000000000090677700022411                         0000000000000001872700000000002            2  021872      010615000000000000000000000NTN050515000000000000000000000000000000000000000000000000000000000000000100000000000001LILIA MARCIA ALBINA DE JESUS RAMIRO     RUA ANTÔNIO ROSSI BASTOS, N 113 0 CEHAB             28300000                                                            000164
1000000000000000000000090677700022411                         0000000000000001873500000000002            2  021873      010615000000000000000000000NTN050515000000000000000000000000000000000000000000000000000000000000000100000000000001PAULO GAMA MOREIRA                      RUA ANTÔNIO ROSSI BASTOS, N 143 ALTOS 0             28300000                                                            000165
1000000000000000000000090677700022411                         0000000000000001874300000000002            2  021874      010615000000000000000000000NTN050515000000000000000000000000000000000000000000000000000000000000000100000000000001AILTON DE OLIVEIRA PIRES                RUA ZEARINO VIEIRA BRUM, N 64 0 CEHAB IT            28300000                                                            000166
1000000000000000000000090677700022411                         0000000000000001875100000000002            2  021875      010615000000000000000000000NTN050515000000000000000000000000000000000000000000000000000000000000000100000000000001VILMA COUTO MONTEIRO                    RUA ZEARINO VIEIRA BRUM, N 124 0 CEHAB I            28300000                                                            000167
1000000000000000000000090677700022411                         0000000000000001876P00000000002            2  021876      010615000000000000000000000NTN050515000000000000000000000000000000000000000000000000000000000000000100000000000001FÁBIO BADARÓ NOGUEIRA DA SILVA          RUA ZEARINO VIEIRA BRUM, N 102 0 CEHAB I            28300000                                                            000168
1000000000000000000000090677700022411                         0000000000000001877800000000002            2  021877      010615000000000000000000000NTN050515000000000000000000000000000000000000000000000000000000000000000100000000000001MARCELO COSTA BELIENE                   RUA ZEARINO VIEIRA BRUM, N 38 0 CEHAB IT            28300000                                                            000169
1000000000000000000000090677700022411                         0000000000000001878600000000002            2  021878      010615000000000000000000000NTN050515000000000000000000000000000000000000000000000000000000000000000100000000000001TEREZINHA COSTA BELIENE                 RUA ZEARINO VIEIRA BRUM 0 CEHAB ITAPERUN            28300000                                                            000170
1000000000000000000000090677700022411                         0000000000000001879400000000002            2  021879      010615000000000000000000000NTN050515000000000000000000000000000000000000000000000000000000000000000100000000000001GILBERTO DA SILVA FERNANDES             RUA JOSÉ DE ASSIS BARBOSA, N 1523 0 CEHA            28300000                                                            000171
1000000000000000000000090677700022411                         0000000000000001880800000000002            2  021880      010615000000000000000000000NTN050515000000000000000000000000000000000000000000000000000000000000000100000000000001JOSÉ VERÍSSIMO DA SILVA FILHO           RUA SUSSENA CHAIA SARDELA, N 55 0 CEHAB             28300000                                                            000172
1000000000000000000000090677700022411                         0000000000000001881600000000002            2  021881      010615000000000000000000000NTN050515000000000000000000000000000000000000000000000000000000000000000100000000000001REGINA MARIA SEPÚLVIDA                  RUA JOSÉ MAXIMILIANO DA SILVEIRA, 176 BA            28300000                                                            000173
1000000000000000000000090677700022411                         0000000000000001882400000000002            2  021882      010615000000000000000000000NTN050515000000000000000000000000000000000000000000000000000000000000000100000000000001VANICE XAVIER GOMES                     RUA PASTOR ELIAS VADAL, N 241 0 CEHAB IT            28300000                                                            000174
1000000000000000000000090677700022411                         0000000000000001883200000000002            2  021883      010615000000000000000000000NTN050515000000000000000000000000000000000000000000000000000000000000000100000000000001DOUGLAS ZANELLI LOPES                   RUA JOSÉ MAXIMILIANO DA SILVEIRA, N 148             28300000                                                            000175
1000000000000000000000090677700022411                         0000000000000001884000000000002            2  021884      010615000000000000000000000NTN050515000000000000000000000000000000000000000000000000000000000000000100000000000001NICE MARIA ZANELLI LOPES                RUA JOSÉ MAXIMILIANO DA SILVEIRA, N 148             28300000                                                            000176
1000000000000000000000090677700022411                         0000000000000001885900000000002            2  021885      010615000000000000000000000NTN050515000000000000000000000000000000000000000000000000000000000000000100000000000001VERA LÚCIA RODRIGUES BARRETO ZANELLI    RUA JOSÉ MAXIMILIANO DA SILVEIRA, 148 AL            28300000                                                            000177
1000000000000000000000090677700022411                         0000000000000001886700000000002            2  021886      010615000000000000000000000NTN050515000000000000000000000000000000000000000000000000000000000000000100000000000001SERGIO MURILO ZANELLI                   BR 356 ZANELLI DIESEL - EM FRENTE A REDE            28300000                                                            000178
1000000000000000000000090677700022411                         0000000000000001887500000000002            2  021887      010615000000000000000000000NTN050515000000000000000000000000000000000000000000000000000000000000000100000000000001IVANETE SANTOS DIAS                     RUA VICENTE CELESTINO, 298 0 SÃO MATEUS             28300000                                                            000179
1000000000000000000000090677700022411                         0000000000000001888300000000002            2  021888      010615000000000000000000000NTN050515000000000000000000000000000000000000000000000000000000000000000100000000000001ANA EMÍLIA BORGES PIMENTEL              RUA ASTOLFO  MUNIZ, N 259 0 SÃO MATEUS I            28300000                                                            000180
1000000000000000000000090677700022411                         0000000000000001889100000000002            2  021889      010615000000000000000000000NTN050515000000000000000000000000000000000000000000000000000000000000000100000000000001ANA LÚCIA BARBOSA PURIFICATE            RUA ALBERTINA DE SOUZA PEREIRA, N 86 0 S            28300000                                                            000181
1000000000000000000000090677700022411                         0000000000000001890500000000002            2  021890      010615000000000000000000000NTN050515000000000000000000000000000000000000000000000000000000000000000100000000000001ADEMIR BUY FERREIRA                     RUA MARIA CECÍLIA NICOLAU, N 198 0 SÃO M            28300000                                                            000182
1000000000000000000000090677700022411                         0000000000000001891300000000002            2  021891      010615000000000000000000000NTN050515000000000000000000000000000000000000000000000000000000000000000100000000000001CAUBÍ GAMA VIEIRA                       RUA MARIA CECÍLIA NICOLAU, N 237 0 SÃO M            28300000                                                            000183
1000000000000000000000090677700022411                         0000000000000001892100000000002            2  021892      010615000000000000000000000NTN050515000000000000000000000000000000000000000000000000000000000000000100000000000001CONCEIÇÃO APARECIDA PEREIRA GUALANDI    RUA ASTROGILDO O. POUBEL 0 SÃO MATHEUS I            28300000                                                            000184
1000000000000000000000090677700022411                         0000000000000001893P00000000002            2  021893      010615000000000000000000000NTN050515000000000000000000000000000000000000000000000000000000000000000100000000000001CORINA PIMENTEL ESCANO                  RUA MARIA CECÍLIA NICOLAU, N 198 0 SÃO M            28300000                                                            000185
1000000000000000000000090677700022411                         0000000000000001894800000000002            2  021894      010615000000000000000000000NTN050515000000000000000000000000000000000000000000000000000000000000000100000000000001CELMIRA MARIA DA CONCEIÇÃO              RUA JOSÁ DA SILVA ALMEIDA, N 189 0 SÃO M            28300000                                                            000186
1000000000000000000000090677700022411                         0000000000000001895600000000002            2  021895      010615000000000000000000000NTN050515000000000000000000000000000000000000000000000000000000000000000100000000000001EFIGÊNIA A. O. GUIMARÃES                RUA SANTA RITA, N 76 0 SÃO MATEUS ITAPER            28300000                                                            000187
1000000000000000000000090677700022411                         0000000000000001896400000000002            2  021896      010615000000000000000000000NTN050515000000000000000000000000000000000000000000000000000000000000000100000000000001ELZA DA SILVA ROSA                      RUA MARIA CECÍLIA NICOLAU 0 SÃO MATEUS I            28300000                                                            000188
1000000000000000000000090677700022411                         0000000000000001897200000000002            2  021897      010615000000000000000000000NTN050515000000000000000000000000000000000000000000000000000000000000000100000000000001ENGRACIA ROSA DE S. NUNES               AVENIDA ASTROGILDO POUBEL, N 279 0 SÃO M            28300000                                                            000189
1000000000000000000000090677700022411                         0000000000000001898000000000002            2  021898      010615000000000000000000000NTN050515000000000000000000000000000000000000000000000000000000000000000100000000000001ÂNGELA MARIA DE SOUZA                   RUA JOSÉ MARIA DA GAMA, N 1659 0 SÃO MAT            28300000                                                            000190
1000000000000000000000090677700022411                         0000000000000001899900000000002            2  021899      010615000000000000000000000NTN050515000000000000000000000000000000000000000000000000000000000000000100000000000001ANGELO DA SILVA ALVES                   RUA VICENTE CELESTINO, N 298 0 SÃO MATHE            28300000                                                            000191
1000000000000000000000090677700022411                         0000000000000001900600000000002            2  021900      010615000000000000000000000NTN050515000000000000000000000000000000000000000000000000000000000000000100000000000001ADILTON JACOMINE                        RUA OSCAR INACIO RODRIGUES, N 140 0 SÃO             28300000                                                            000192
1000000000000000000000090677700022411                         0000000000000001901400000000002            2  021901      010615000000000000000000000NTN050515000000000000000000000000000000000000000000000000000000000000000100000000000001ARLEIDA NUNES DE PADUA MARQUEZ          RUA VICENTE CELESTINO, N 302 0 SÃO MATHE            28300000                                                            000193
1000000000000000000000090677700022411                         0000000000000001902200000000002            2  021902      010615000000000000000000000NTN050515000000000000000000000000000000000000000000000000000000000000000100000000000001ADEMIR BRAGA PIMENTEL                   RUA VICENTE CELESTINO, N 321 0 SÃO MATHE            28300000                                                            000194
1000000000000000000000090677700022411                         0000000000000001903000000000002            2  021903      010615000000000000000000000NTN050515000000000000000000000000000000000000000000000000000000000000000100000000000001BEATRIZ BEIRAL SATOLO                   RUA NOSSA SENHORA APARECIDA, N 20 0 SÃO             28300000                                                            000195
1000000000000000000000090677700022411                         0000000000000001904900000000002            2  021904      010615000000000000000000000NTN050515000000000000000000000000000000000000000000000000000000000000000100000000000001MARLENE CRUZ MEDEIROS                   AVENIDA EUCLIDES POUBEL DE LIMA, N 574 0            28300000                                                            000196
1000000000000000000000090677700022411                         0000000000000001905700000000002            2  021905      010615000000000000000000000NTN050515000000000000000000000000000000000000000000000000000000000000000100000000000001FÁBIA APARECIDA ALVES PIRES             RUA CARMELI DURAND, N 196 0 GUARITÁ ITAP            28300000                                                            000197
1000000000000000000000090677700022411                         0000000000000001906500000000002            2  021906      010615000000000000000000000NTN050515000000000000000000000000000000000000000000000000000000000000000100000000000001ROMILDA DOS SANTOS DIAS                 RUA VICENTE CELESTINO, 298 0 SÃO MATEUS             28300000                                                            000198
1000000000000000000000090677700022411                         0000000000000001907300000000002            2  021907      010615000000000000000000000NTN050515000000000000000000000000000000000000000000000000000000000000000100000000000001RITA DE CÁSSIA BORGES BOECHAT           RUA GERALDA VASCONCELOS, N 363 0 SÃO MAT            28300000                                                            000199
1000000000000000000000090677700022411                         0000000000000001908100000000002            2  021908      010615000000000000000000000NTN050515000000000000000000000000000000000000000000000000000000000000000100000000000001MARIA CÉLIA DIAS ROHEM                  RUA JOSÉ MARIA DA GAMA, N 86 0 SÃO MATEU            28300000                                                            000200
1000000000000000000000090677700022411                         0000000000000001909P00000000002            2  021909      010615000000000000000000000NTN050515000000000000000000000000000000000000000000000000000000000000000100000000000001ANA ISABEL DA CRUZ                      PRAÇA FRANCISCO ROSA DA SILVA, N 21 0 BO            28388000                                                            000201
1000000000000000000000090677700022411                         0000000000000001910300000000002            2  021910      010615000000000000000000000NTN050515000000000000000000000000000000000000000000000000000000000000000100000000000001ELÍZIA MARIA DA SILVEIRA FRÓIS          ED. FRANCISCO CARLOS DE OLIVEIRA, N 21 0            28388000                                                            000202
1000000000000000000000090677700022411                         0000000000000001911100000000002            2  021911      010615000000000000000000000NTN050515000000000000000000000000000000000000000000000000000000000000000100000000000001MARIA LUCIMAR DE SOUZA MOISÉIS SEURINO  RUA BOM JESUS, N 567 0 AEROPORTO ITAPERU            28300000                                                            000203
1000000000000000000000090677700022411                         0000000000000001912P00000000002            2  021912      010615000000000000000000000NTN050515000000000000000000000000000000000000000000000000000000000000000100000000000001MARCOS ANTÔNIO GAZAL GUIMARÃES          AVENIDA ERNANE DO AMARAL PEIXOTO, N 822             28300000                                                            000204
1000000000000000000000090677700022411                         0000000000000001913800000000002            2  021913      010615000000000000000000000NTN050515000000000000000000000000000000000000000000000000000000000000000100000000000001BEATRIZ DA CONCEIÇÃO SILVA              RUA PEDRO ABREU CARDOSO, N 906, APT: 1 0            28300000                                                            000205
1000000000000000000000090677700022411                         0000000000000001914600000000002            2  021914      010615000000000000000000000NTN050515000000000000000000000000000000000000000000000000000000000000000100000000000001EVA DE FÁTIMA DA SILVA FERNANDES        RUA SALUSTIANO FERREIRA BRAGA, N 166 0 G            28300000                                                            000206
1000000000000000000000090677700022411                         0000000000000001915400000000002            2  021915      010615000000000000000000000NTN050515000000000000000000000000000000000000000000000000000000000000000100000000000001VERA LÚCIA RODRIGUES VIEIRA             ROZENIL TEIXEIRA DE SOUZA, N 08 0 VINHOS            28300000                                                            000207
1000000000000000000000090677700022411                         0000000000000001916200000000002            2  021916      010615000000000000000000000NTN050515000000000000000000000000000000000000000000000000000000000000000100000000000001SANDRA REGINA DE OLIVEIRA COQUITO GUIMARAVENIDA ERNANE DO AMARAL PEIXOTO, N 822             28300000                                                            000208
1000000000000000000000090677700022411                         0000000000000001917000000000002            2  021917      010615000000000000000000000NTN050515000000000000000000000000000000000000000000000000000000000000000100000000000001NEIMAR SALGADO DE SOUZA                 RUA IZIDORO CÂNDIDO FERREIRA, N 300 0 CE            28300000                                                            000209
1000000000000000000000090677700022411                         0000000000000001918900000000002            2  021918      010615000000000000000000000NTN050515000000000000000000000000000000000000000000000000000000000000000100000000000001SABRINA KELY B. DE SOUZA                RUA VICTOR GODINHO PAVAN, N 894 0 VALE D            28300000                                                            000210
1000000000000000000000090677700022411                         0000000000000001919700000000002            2  021919      010615000000000000000000000NTN050515000000000000000000000000000000000000000000000000000000000000000100000000000001DELMA SOARES PESSANHA                   SAMBRA 0 SAMBRA ITALVA RJ                           1                                                                   000211
1000000000000000000000090677700022411                         0000000000000001920000000000002            2  021920      010615000000000000000000000NTN050515000000000000000000000000000000000000000000000000000000000000000100000000000001DEJAIR SOARES ROSA                      SAMBRA 0 SAMBRA ITALVA RJ                           1                                                                   000212
1000000000000000000000090677700022411                         0000000000000001921900000000002            2  021921      010615000000000000000000000NTN050515000000000000000000000000000000000000000000000000000000000000000100000000000001LUIZ MARCOS DE SOUZA                    CAPELA NOSSA SENHORA DA PENHA 0 SAMBRA I            1                                                                   000213
1000000000000000000000090677700022411                         0000000000000001922700000000002            2  021922      010615000000000000000000000NTN050515000000000000000000000000000000000000000000000000000000000000000100000000000001MANOEL SOARES PESSANHA                  SAMBRA 0 SAMBRA ITALVA RJ                           1                                                                   000214
1000000000000000000000090677700022411                         0000000000000001923500000000002            2  021923      010615000000000000000000000NTN050515000000000000000000000000000000000000000000000000000000000000000100000000000001JOEL AGUIAR BRANCO                      CAPELA DO SAMBRA 0 SAMBRA ITALVA RJ                 1                                                                   000215
1000000000000000000000090677700022411                         0000000000000001924300000000002            2  021924      010615000000000000000000000NTN050515000000000000000000000000000000000000000000000000000000000000000100000000000001MARCELO PIMENTEL MACHADO                RUA ALBUTINA DE SOUZA PEREIRA, 45 0 SÃO             28300000                                                            000216
1000000000000000000000090677700022411                         0000000000000001925100000000002            2  021925      010615000000000000000000000NTN050515000000000000000000000000000000000000000000000000000000000000000100000000000001MARIA DE FÁTIMA GAMA ROHEM              PEDRO ABREU CARDOSO, 195 0 SÃO MATEUS IT            28300000                                                            000217
1000000000000000000000090677700022411                         0000000000000001926P00000000002            2  021926      010615000000000000000000000NTN050515000000000000000000000000000000000000000000000000000000000000000100000000000001MARIA FRANCISCA CORREA                  RUA ALBERTINA DE SOUZA PEREIRA, 67 0 SÃO            28300000                                                            000218
1000000000000000000000090677700022411                         0000000000000001927800000000002            2  021927      010615000000000000000000000NTN050515000000000000000000000000000000000000000000000000000000000000000100000000000001HERMANY CARNEIRO RODRIGUES              RUA DEZ DE MAIO, N 491 0 CENTRO ITAPERUN            28300000                                                            000219
1000000000000000000000090677700022411                         0000000000000001928600000000002            2  021928      010615000000000000000000000NTN050515000000000000000000000000000000000000000000000000000000000000000100000000000001MARIA IZABEL D. E. GUALANDI             RUA IZALTINA HONÓRIO, S/N 0 SÃO MATEUS I            28300000                                                            000220
1000000000000000000000090677700022411                         0000000000000001929400000000002            2  021929      010615000000000000000000000NTN050515000000000000000000000000000000000000000000000000000000000000000100000000000001VANDA OLIVEIRA SOUZA                    RUA JOAQUIM CAETANO QUERES, N 430 0 GUAR            28300000                                                            000221
1000000000000000000000090677700022411                         0000000000000001930800000000002            2  021930      010615000000000000000000000NTN050515000000000000000000000000000000000000000000000000000000000000000100000000000001ADRIANA CRISTINA S. PRATA SILVA         RUA SEBASTIÃO JOSÉ NEVES, N 416 0 GUARIT            28300000                                                            000222
1000000000000000000000090677700022411                         0000000000000001931600000000002            2  021931      010615000000000000000000000NTN050515000000000000000000000000000000000000000000000000000000000000000100000000000001ANA PAULA BARTOLAZZI NUNES SOUZA        RUA ERNESTINA GOMES, N 169 0 VINHOSA ITA            28300000                                                            000223
1000000000000000000000090677700022411                         0000000000000001932400000000002            2  021932      010615000000000000000000000NTN050515000000000000000000000000000000000000000000000000000000000000000100000000000001EDNELSON NOVAIS MACEDO                  RUA VINHOSA, N 627 0 VINHOSA ITAPERUNA R            28300000                                                            000224
1000000000000000000000090677700022411                         0000000000000001933200000000002            2  021933      010615000000000000000000000NTN050515000000000000000000000000000000000000000000000000000000000000000100000000000001MARIA BEATRIZ DE SOUZA MACHADO          RUA BENEDITO NICOLAU, N 34 0 SÃO MATHEUS            28300000                                                            000225
1000000000000000000000090677700022411                         0000000000000001934000000000002            2  021934      010615000000000000000000000NTN050515000000000000000000000000000000000000000000000000000000000000000100000000000001JOÃO GENOARIO NETO                      RUA JOÃO EMÍLIO BOECHAT, N 310 0 VINHOSA            28300000                                                            000226
1000000000000000000000090677700022411                         0000000000000001935900000000002            2  021935      010615000000000000000000000NTN050515000000000000000000000000000000000000000000000000000000000000000100000000000001LUCIANA DE MORAES DA SILVA              RUA DR. ARIASTO DE LANNES RABELLLO 0 CEN            28380000                                                            000227
1000000000000000000000090677700022411                         0000000000000001936700000000002            2  021936      010615000000000000000000000NTN050515000000000000000000000000000000000000000000000000000000000000000100000000000001CATARINA ROSA DA SILVA                  AVENIDA ANTÔNIO DA SILVA CAMPOS, N 22 0             28380000                                                            000228
1000000000000000000000090677700022411                         0000000000000001937500000000002            2  021937      010615000000000000000000000NTN050515000000000000000000000000000000000000000000000000000000000000000100000000000001ADILSON DA SILVEIRA VALENTIM            RUA HUDSON SILGUEIRA DA FONSECA, N 32 0             28388000                                                            000229
1000000000000000000000090677700022411                         0000000000000001938300000000002            2  021938      010615000000000000000000000NTN050515000000000000000000000000000000000000000000000000000000000000000100000000000001EVA COSTA DA SILVEIRA VALENTIM          RUA NAIR DE OLIVEIRA, N 14 0 BOM JESUS D            28388000                                                            000230
1000000000000000000000090677700022411                         0000000000000001939100000000002            2  021939      010615000000000000000000000NTN050515000000000000000000000000000000000000000000000000000000000000000100000000000001BEATRIZ DA SILVA INÁCIO                 RUA BENEDITO NICOLAL, N 582 0 SÃO MATHEU            28300000                                                            000231
1000000000000000000000090677700022411                         0000000000000001940500000000002            2  021940      010615000000000000000000000NTN050515000000000000000000000000000000000000000000000000000000000000000100000000000001VALDEIA DOS SANTOS BORGES               RUA SALUSTIANO FERREIRA BRAGA, N 278 0 G            28300000                                                            000232
1000000000000000000000090677700022411                         0000000000000001941300000000002            2  021941      010615000000000000000000000NTN050515000000000000000000000000000000000000000000000000000000000000000100000000000001PATRICIA TRAVASSO RIBAS DE PAULO        RUA ERNESTINA GOMES, N 223 0 VINHOSA ITA            28300000                                                            000233
1000000000000000000000090677700022411                         0000000000000001942100000000002            2  021942      010615000000000000000000000NTN050515000000000000000000000000000000000000000000000000000000000000000100000000000001CELESTI DEGLI ESPOSTI                   RUA JOAQUIM CAETANO QUERES, N 436 0 GUAR            28300000                                                            000234
1000000000000000000000090677700022411                         0000000000000001943P00000000002            2  021943      010615000000000000000000000NTN050515000000000000000000000000000000000000000000000000000000000000000100000000000001JOSÉ FERNANDO BRAGA COSTA                ZONA RURAL 0 JABUTICABA ITAPERUNA RJ               28300000                                                            000235
1000000000000000000000090677700022411                         0000000000000001944800000000002            2  021944      010615000000000000000000000NTN050515000000000000000000000000000000000000000000000000000000000000000100000000000001ALESSANDRA DOS SANTOS PORTO BEIRAL      CAPELA DO SAMBRA 0 SAMBRA ITALVA RJ                 1                                                                   000236
1000000000000000000000090677700022411                         0000000000000001945600000000002            2  021945      010615000000000000000000000NTN050515000000000000000000000000000000000000000000000000000000000000000100000000000001ZENILDA DE SOUZA PESSANHA               RUA SÃO SEBASTIÃO, N 22 0 SALDANHA DA GA            28250000                                                            000237
1000000000000000000000090677700022411                         0000000000000001946400000000002            2  021946      010615000000000000000000000NTN050515000000000000000000000000000000000000000000000000000000000000000100000000000001IRACY FERREIRA OLIVEIRA                 RUA GERALDA VASCONCELOS, 35 0 SÃO MATEUS            28300000                                                            000238
1000000000000000000000090677700022411                         0000000000000001947200000000002            2  021947      010615000000000000000000000NTN050515000000000000000000000000000000000000000000000000000000000000000100000000000001CARLOS ALBERTO CAVALHEIRO               AVENIDA EUCLIDES POUBEL DE LIMA, N 635 0            28300000                                                            000239
1000000000000000000000090677700022411                         0000000000000001948000000000002            2  021948      010615000000000000000000000NTN050515000000000000000000000000000000000000000000000000000000000000000100000000000001FÁTIMA HORÁCIO GOMES                    RUA MARECHAL RONDAN, N 278 ALTOS 0 VINHO            28300000                                                            000240
1000000000000000000000090677700022411                         0000000000000001949900000000002            2  021949      010615000000000000000000000NTN050515000000000000000000000000000000000000000000000000000000000000000100000000000000EDIGAD MAÇANO XIMENES                   RUA VINHOSA, N 119 0 VINHOSA ITAPERUNA R            28300000                                                            000241
1000000000000000000000090677700022411                         0000000000000001950200000000002            2  021950      010615000000000000000000000NTN050515000000000000000000000000000000000000000000000000000000000000000100000000000001GLÓRIA ARAÚJO SARAIVA                   ROSENIL TEIXEIRA DE SOUZA, N 192 0 VINHO            28300000                                                            000242
1000000000000000000000090677700022411                         0000000000000001951000000000002            2  021951      010615000000000000000000000NTN050515000000000000000000000000000000000000000000000000000000000000000100000000000001PAULO CÉSAR FARIAS DOS SANTOS           AVENIDA SANTOS DURAND, N 334 0 MATADOURO            28300000                                                            000243
1000000000000000000000090677700022411                         0000000000000001952900000000002            2  021952      010615000000000000000000000NTN050515000000000000000000000000000000000000000000000000000000000000000100000000000001MARIA ALXILIADORA RODRIGUES             AVENIDA EUCLIDES POUBEL DE LIMA, N 94 0             28300000                                                            000244
1000000000000000000000090677700022411                         0000000000000001953700000000002            2  021953      010615000000000000000000000NTN050515000000000000000000000000000000000000000000000000000000000000000100000000000001MARIA REGINA DE OLIVEIRA SOUZA          RUA GERALDA VASCONCELOS CANOZARRO, N 55             28300000                                                            000245
1000000000000000000000090677700022411                         0000000000000001954500000000002            2  021954      010615000000000000000000000NTN050515000000000000000000000000000000000000000000000000000000000000000100000000000001SEBASTIANA GAMA ROHEM                   RUA PEDRO DE ABREU CARDOSO, 195 0 SÃO MA            28300000                                                            000246
1000000000000000000000090677700022411                         0000000000000001955300000000002            2  021955      010615000000000000000000000NTN050515000000000000000000000000000000000000000000000000000000000000000100000000000001ELIAS MARTINS PIMENTEL                  RUA PEDRO ABREL CARDOSO, N 174 0 SÃO MAT            28300000                                                            000247
1000000000000000000000090677700022411                         0000000000000001956100000000002            2  021956      010615000000000000000000000NTN050515000000000000000000000000000000000000000000000000000000000000000100000000000001MARIA CREMILDA AUXILIADORA DE MELO      AVENIDA EUCLIDES POUBEL DE LIMA, N 654 0            28300000                                                            000248
1000000000000000000000090677700022411                         0000000000000001957P00000000002            2  021957      010615000000000000000000000NTN050515000000000000000000000000000000000000000000000000000000000000000100000000000001MARIA ALVES DE MELO                     AVENIDA EUCLIDES POUBEL DE LIMA, N 654 0            28300000                                                            000249
