01REMESSA01COBRANCA       00000000000000463376OBRAS SOCIAIS DO PADRE GERALDO237BRADESCO       010615        MX0000011                                                                                                                                                                                                                                                                                     000001
1000000000000000000000090677700022411                         0000000000000002036500000000002            2  022036      010715000000000000000000000NTN010615000000000000000000000000000000000000000000000000000000000000000100000000000001EDHEMARA FERREIRA ARANTES               RUA INTENDENTE FRANCLIN RABELLO, N 43 0             28380000PROTESTAR EM 0 DIAS CORRIDOS APÛS O VENCIMENTO              000002
1000000000000000000000090677700022411                         0000000000000002037300000000002            2  022037      010715000000000000000000000NTN010615000000000000000000000000000000000000000000000000000000000000000100000000000001MARLICE RABELLO ALONSO                  RUA NOSSA SRA. DA NATIVIDADE, N 08 0 CEN            28380000PROTESTAR EM 0 DIAS CORRIDOS APÛS O VENCIMENTO              000003
1000000000000000000000090677700022411                         0000000000000002038100000000002            2  022038      010715000000000000000000000NTN010615000000000000000000000000000000000000000000000000000000000000000100000000000001LUIZA MARIA RABELLO ALONSO              RUA NOSSA SRA. DA NATIVIDADE, N 08 0 CEN            28380000PROTESTAR EM 0 DIAS CORRIDOS APÛS O VENCIMENTO              000004
1000000000000000000000090677700022411                         0000000000000002039P00000000002            2  022039      010715000000000000000000000NTN010615000000000000000000000000000000000000000000000000000000000000000100000000000001MARIA CELESTE DOS SANTOS SILVA          RUA GEORGINO DUTRA WERNECH, N 22 0 AREI√            2830000 PROTESTAR EM 0 DIAS CORRIDOS APÛS O VENCIMENTO              000005
1000000000000000000000090677700022411                         0000000000000002040300000000002            2  022040      010715000000000000000000000NTN010615000000000000000000000000000000000000000000000000000000000000000100000000000001ILIZETE MARIA DE MORAES                 RUA GERALDO JOS… DA SILVA, N 42 0 LIBERD            28380000PROTESTAR EM 0 DIAS CORRIDOS APÛS O VENCIMENTO              000006
1000000000000000000000090677700022411                         0000000000000002041100000000002            2  022041      010715000000000000000000000NTN010615000000000000000000000000000000000000000000000000000000000000000100000000000001ISABEL RABELLO ALONSO                   RUA NOSSA SRA. DA NATIVIDADE, N 08 0 CEN            28300000PROTESTAR EM 0 DIAS CORRIDOS APÛS O VENCIMENTO              000007
1000000000000000000000090677700022411                         0000000000000002042P00000000002            2  022042      010715000000000000000000000NTN010615000000000000000000000000000000000000000000000000000000000000000100000000000001LUIZA MARIA DA CRUZ DE PAULA            RUA SANTO ANTONIO, N 01 0 NOSSA SRA. DE             28380000PROTESTAR EM 0 DIAS CORRIDOS APÛS O VENCIMENTO              000008
1000000000000000000000090677700022411                         0000000000000002043800000000002            2  022043      010715000000000000000000000NTN010615000000000000000000000000000000000000000000000000000000000000000100000000000001ANA ISABEL DA CRUZ                      PRA«A FRANCISCO ROSA DA SILVA, N 21 0 BO            28388000PROTESTAR EM 0 DIAS CORRIDOS APÛS O VENCIMENTO              000009
1000000000000000000000090677700022411                         0000000000000002044600000000002            2  022044      010715000000000000000000000NTN010615000000000000000000000000000000000000000000000000000000000000000100000000000001ELÕZIA MARIA DA SILVEIRA FR”IS          ED. FRANCISCO CARLOS DE OLIVEIRA, N 21 0            28388000PROTESTAR EM 0 DIAS CORRIDOS APÛS O VENCIMENTO              000010
1000000000000000000000090677700022411                         0000000000000002045400000000002            2  022045      010715000000000000000000000NTN010615000000000000000000000000000000000000000000000000000000000000000100000000000001LUCIANA DE MORAES DA SILVA              RUA DR. ARIASTO DE LANNES RABELLLO 0 CEN            28380000PROTESTAR EM 0 DIAS CORRIDOS APÛS O VENCIMENTO              000011
1000000000000000000000090677700022411                         0000000000000002046200000000002            2  022046      010715000000000000000000000NTN010615000000000000000000000000000000000000000000000000000000000000000100000000000001CATARINA ROSA DA SILVA                  AVENIDA ANT‘NIO DA SILVA CAMPOS, N 22 0             28380000PROTESTAR EM 0 DIAS CORRIDOS APÛS O VENCIMENTO              000012
1000000000000000000000090677700022411                         0000000000000002047000000000002            2  022047      010715000000000000000000000NTN010615000000000000000000000000000000000000000000000000000000000000000100000000000001ADILSON DA SILVEIRA VALENTIM            RUA HUDSON SILGUEIRA DA FONSECA, N 32 0             28388000PROTESTAR EM 0 DIAS CORRIDOS APÛS O VENCIMENTO              000013
1000000000000000000000090677700022411                         0000000000000002048900000000002            2  022048      010715000000000000000000000NTN010615000000000000000000000000000000000000000000000000000000000000000100000000000001EVA COSTA DA SILVEIRA VALENTIM          RUA NAIR DE OLIVEIRA, N 14 0 BOM JESUS D            28388000PROTESTAR EM 0 DIAS CORRIDOS APÛS O VENCIMENTO              000014
1000000000000000000000090677700022411                         0000000000000002049700000000002            2  022049      010715000000000000000000000NTN010615000000000000000000000000000000000000000000000000000000000000000100000000000001JORGE FRANCISCO FERREIRA                TERESA BASTOS, 170 0 SERRARIA NATIVIDADE                    PROTESTAR EM 0 DIAS CORRIDOS APÛS O VENCIMENTO              000015
1000000000000000000000090677700022411                         0000000000000002050000000000002            2  022050      010715000000000000000000000NTN010615000000000000000000000000000000000000000000000000000000000000000100000000000001VITOR FERREIRA RODRIGUES                RUA ACADEMICO JOSE LUIZ, N 185 0 AEROPOR            28300000                                                            000016
1000000000000000000000090677700022411                         0000000000000002051900000000002            2  022051      010715000000000000000000000NTN010615000000000000000000000000000000000000000000000000000000000000000100000000000001ANA MAGANHA GUALANDI                    AVENIDA EUCLIDES POUBEL DE LIMA, N 644 0            28300000                                                            000017
1000000000000000000000090677700022411                         0000000000000002052700000000002            2  022052      010715000000000000000000000NTN010615000000000000000000000000000000000000000000000000000000000000000100000000000001ANA ALVES PIRES                         RUA CARM…LIA DURAND, N 196 0 GUARIT¡ ITA            28300000                                                            000018
1000000000000000000000090677700022411                         0000000000000002053500000000002            2  022053      010715000000000000000000000NTN010615000000000000000000000000000000000000000000000000000000000000000100000000000001BRUNA COSTA FERREIRA                    RUA SEBASTI√O VASCONCELOS, N 177 0 VINHO            28300000                                                            000019
1000000000000000000000090677700022411                         0000000000000002054300000000002            2  022054      010715000000000000000000000NTN010615000000000000000000000000000000000000000000000000000000000000000100000000000001BENEGENINA S. RODRIGUES                 RUA SALUSTIANO FERREIRA BRAGA, N 687 0 G            28300000                                                            000020
1000000000000000000000090677700022411                         0000000000000002055100000000002            2  022055      010715000000000000000000000NTN010615000000000000000000000000000000000000000000000000000000000000000100000000000001CARMEM L⁄CIA SILVA DE MELO              AVENIDA EUCLIDES POUBEL DE LIMA, N 144 A            2830000                                                             000021
1000000000000000000000090677700022411                         0000000000000002056P00000000002            2  022056      010715000000000000000000000NTN010615000000000000000000000000000000000000000000000000000000000000000100000000000001CERLI ROSA BARBOSA                      RUA VINHOSA 0 VINHOSA ITAPERUNA RJ                  28300000                                                            000022
1000000000000000000000090677700022411                         0000000000000002057800000000002            2  022057      010715000000000000000000000NTN010615000000000000000000000000000000000000000000000000000000000000000100000000000001CARLOS AMARO SACHE RABELLO              RUA ELIANE ANDRADE MANTAVANI, N 42 0 VIN            28300000                                                            000023
1000000000000000000000090677700022411                         0000000000000002058600000000002            2  022058      010715000000000000000000000NTN010615000000000000000000000000000000000000000000000000000000000000000100000000000001CINIRA COSTA BRANCO                     RUA VINHOSA, N 469 0 VINHOSA ITAPERUNA R            28300000                                                            000024
1000000000000000000000090677700022411                         0000000000000002059400000000002            2  022059      010715000000000000000000000NTN010615000000000000000000000000000000000000000000000000000000000000000100000000000001EDHEMARA FERREIRA ARANTES               RUA INTENDENTE FRANCLIN RABELLO, N 43 0             28380000                                                            000025
1000000000000000000000090677700022411                         0000000000000002060800000000002            2  022060      010715000000000000000000000NTN010615000000000000000000000000000000000000000000000000000000000000000100000000000001MARLICE RABELLO ALONSO                  RUA NOSSA SRA. DA NATIVIDADE, N 08 0 CEN            28380000                                                            000026
1000000000000000000000090677700022411                         0000000000000002061600000000002            2  022061      010715000000000000000000000NTN010615000000000000000000000000000000000000000000000000000000000000000100000000000001GLEYCIANE DE OLIVEIRA DIAS              RUA CAM…LIA DURAND, N 129 0 GUARIT¡ ITAP            28300000                                                            000027
1000000000000000000000090677700022411                         0000000000000002062400000000002            2  022062      010715000000000000000000000NTN010615000000000000000000000000000000000000000000000000000000000000000100000000000001CELINA FERREIRA MACHADO                 RUA MARECHAL RONDON, N 278 0 VINHOSA ITA            28300000                                                            000028
1000000000000000000000090677700022411                         0000000000000002063200000000002            2  022063      010715000000000000000000000NTN010615000000000000000000000000000000000000000000000000000000000000000100000000000001CECILIA BARTOLAZZI DEGLI ESPOSTI        AVENIDA EUCLIDES POUBEL DE LIMA, N 611 0            28300000                                                            000029
1000000000000000000000090677700022411                         0000000000000002064000000000002            2  022064      010715000000000000000000000NTN010615000000000000000000000000000000000000000000000000000000000000000100000000000001CARLOS ROBERTO BRAMBILA DE OLIVEIRA     AVENIDA EUCLIDES POUBEL DE LIMA, N 587 0            28300000                                                            000030
1000000000000000000000090677700022411                         0000000000000002065900000000002            2  022065      010715000000000000000000000NTN010615000000000000000000000000000000000000000000000000000000000000000100000000000001CELIA REGINA ABRA√O DORNELAS            RUA SEBASTIANA FERREIRA, N 287 0 GUARIT¡            28300000                                                            000031
1000000000000000000000090677700022411                         0000000000000002066700000000002            2  022066      010715000000000000000000000NTN010615000000000000000000000000000000000000000000000000000000000000000100000000000001DANIEL MONTEIRO DE OLIVEIRA             RUA CARMO FRANCISCO TOMAZINE, N 76 0 GUA            28300000                                                            000032
1000000000000000000000090677700022411                         0000000000000002067500000000002            2  022067      010715000000000000000000000NTN010615000000000000000000000000000000000000000000000000000000000000000100000000000001EDITH LOPES PAULA                       RUA BENEDITO NICOLAU, N 94 0 VINHOSA ITA            28300000                                                            000033
1000000000000000000000090677700022411                         0000000000000002068300000000002            2  022068      010715000000000000000000000NTN010615000000000000000000000000000000000000000000000000000000000000000100000000000001EDNA LOPES DA SILVA                     RUA JO√O BOECHAT FILHO, N 46 0 VINHOSA I            28300000                                                            000034
1000000000000000000000090677700022411                         0000000000000002069100000000002            2  022069      010715000000000000000000000NTN010615000000000000000000000000000000000000000000000000000000000000000100000000000001EZEQUIEL CRUZ DA SILVA                  AVENIDA EUCLIDES POUBEL DE LIMA, N 622 0            28300000                                                            000035
1000000000000000000000090677700022411                         0000000000000002070500000000002            2  022070      010715000000000000000000000NTN010615000000000000000000000000000000000000000000000000000000000000000100000000000001FL¡VIO BORGES COELHO                    RUA JOS… MARIA DA GAMA, N 1581 0 S√O MAT            28300000                                                            000036
1000000000000000000000090677700022411                         0000000000000002071300000000002            2  022071      010715000000000000000000000NTN010615000000000000000000000000000000000000000000000000000000000000000100000000000001HON”RIO GECY                            AVENIDA EUCLIDES PUBEL DE LIMA, N 639 0             28300000                                                            000037
1000000000000000000000090677700022411                         0000000000000002072100000000002            2  022072      010715000000000000000000000NTN010615000000000000000000000000000000000000000000000000000000000000000100000000000001ISOLINA FOLIGNO FERREIRA                AVENIDA EUCLIDES PUBEL DE LIMA, N 200 0             28300000                                                            000038
1000000000000000000000090677700022411                         0000000000000002073P00000000002            2  022073      010715000000000000000000000NTN010615000000000000000000000000000000000000000000000000000000000000000100000000000001ILDA LOPES CORR A                       RUA JOS… MARIA DA GAMA, N 1659 0 S√O MAT            28300000                                                            000039
1000000000000000000000090677700022411                         0000000000000002074800000000002            2  022074      010715000000000000000000000NTN010615000000000000000000000000000000000000000000000000000000000000000100000000000001ISABEL BEIRAL SATOLO                    AVENIDA EUCLIDES PUBEL DE LIMA, N 815 0             28300000                                                            000040
1000000000000000000000090677700022411                         0000000000000002075600000000002            2  022075      010715000000000000000000000NTN010615000000000000000000000000000000000000000000000000000000000000000100000000000001JOAQUIM GUALANDI                        AVENIDA EUCLIDES POUBEL DE LIMA, N 861 0            28300000                                                            000041
1000000000000000000000090677700022411                         0000000000000002076400000000002            2  022076      010715000000000000000000000NTN010615000000000000000000000000000000000000000000000000000000000000000100000000000001JO√O BATISTA GUALANDI                   AVENIDA EUCLIDES POUBEL DE LIMA, N 815 0            28300000                                                            000042
1000000000000000000000090677700022411                         0000000000000002077200000000002            2  022077      010715000000000000000000000NTN010615000000000000000000000000000000000000000000000000000000000000000100000000000001J⁄LIO C…SAR DE S. GON«ALVES             RUA SALESTIANO, N 691 0 GUARIT¡ ITAPERUN            28300000                                                            000043
1000000000000000000000090677700022411                         0000000000000002078000000000002            2  022078      010715000000000000000000000NTN010615000000000000000000000000000000000000000000000000000000000000000100000000000001JO√O EVANGELISTA                        AVENIDA EUCLIDES POUBEL DE LIMA, N 644 0            28300000                                                            000044
1000000000000000000000090677700022411                         0000000000000002079900000000002            2  022079      010715000000000000000000000NTN010615000000000000000000000000000000000000000000000000000000000000000100000000000001JO√O BATISTA                            AVENIDA EUCLIDES POUBEL DE LIMA, N 611 0            28300000                                                            000045
1000000000000000000000090677700022411                         0000000000000002080200000000002            2  022080      010715000000000000000000000NTN010615000000000000000000000000000000000000000000000000000000000000000100000000000001JOS… DEGLI ESPOSTI                      AVENIDA EUCLIDES POUBEL DE LIMA, N 611 0            28300000                                                            000046
1000000000000000000000090677700022411                         0000000000000002081000000000002            2  022081      010715000000000000000000000NTN010615000000000000000000000000000000000000000000000000000000000000000100000000000001J…SSICA ANDOLPH BORGAT                  RUA JO√O EMÕLIO BOECHAT, N 198 0 VINHOSA            28300000                                                            000047
1000000000000000000000090677700022411                         0000000000000002082900000000002            2  022082      010715000000000000000000000NTN010615000000000000000000000000000000000000000000000000000000000000000100000000000001LUIZA MARIA RABELLO ALONSO              RUA NOSSA SRA. DA NATIVIDADE, N 08 0 CEN            28380000                                                            000048
1000000000000000000000090677700022411                         0000000000000002083700000000002            2  022083      010715000000000000000000000NTN010615000000000000000000000000000000000000000000000000000000000000000100000000000001LUIZ CARLOS BORGATH                     RUA JO√O EMÕLIO BOECHAT, N 198 0 VINHOSA            28300000                                                            000049
1000000000000000000000090677700022411                         0000000000000002084500000000002            2  022084      010715000000000000000000000NTN010615000000000000000000000000000000000000000000000000000000000000000100000000000001LUIZ CARLOS PEREIRA DE SOUZA            RUA ERNESTINA GOMES, N 227 0 VINHOSA ITA            28300000                                                            000050
1000000000000000000000090677700022411                         0000000000000002085300000000002            2  022085      010715000000000000000000000NTN010615000000000000000000000000000000000000000000000000000000000000000100000000000001LARA ROBERTA GENTILUCI DE OLIVEIRA      AVENIDA EUCLIDES PUBEL DE LIMA, N 639 0             28300000                                                            000051
1000000000000000000000090677700022411                         0000000000000002086100000000002            2  022086      010715000000000000000000000NTN010615000000000000000000000000000000000000000000000000000000000000000100000000000001LIA MARCIA C. FERREIRA                  RUA SEBASTI√O VASCONCELOS, N 177 0 VINHO            28300000                                                            000052
1000000000000000000000090677700022411                         0000000000000002087P00000000002            2  022087      010715000000000000000000000NTN010615000000000000000000000000000000000000000000000000000000000000000100000000000001LUIZ CLAUDIO DA SILVA DEGLI ESPOSTI     RUA DELMA TAVARES, N 120 0 GUARIT¡ ITAPE            28300000                                                            000053
1000000000000000000000090677700022411                         0000000000000002088800000000002            2  022088      010715000000000000000000000NTN010615000000000000000000000000000000000000000000000000000000000000000100000000000001MARIA CELESTE DOS SANTOS SILVA          RUA GEORGINO DUTRA WERNECH, N 22 0 AREI√            2830000                                                             000054
1000000000000000000000090677700022411                         0000000000000002089600000000002            2  022089      010715000000000000000000000NTN010615000000000000000000000000000000000000000000000000000000000000000100000000000001ILIZETE MARIA DE MORAES                 RUA GERALDO JOS… DA SILVA, N 42 0 LIBERD            28380000                                                            000055
1000000000000000000000090677700022411                         0000000000000002090P00000000002            2  022090      010715000000000000000000000NTN010615000000000000000000000000000000000000000000000000000000000000000100000000000001MARIA MADALENA TIRADENTES               AVENIDA EUCLIDES POUBEL DE LIMA, N 815 0            28300000                                                            000056
1000000000000000000000090677700022411                         0000000000000002091800000000002            2  022091      010715000000000000000000000NTN010615000000000000000000000000000000000000000000000000000000000000000100000000000001MARIA DO CARMO B¬NDOLI CARVALHO         RUA VINHOSA, N 350 0 VINHOSA ITAPERUNA R            28300000                                                            000057
1000000000000000000000090677700022411                         0000000000000002092600000000002            2  022092      010715000000000000000000000NTN010615000000000000000000000000000000000000000000000000000000000000000100000000000001MARIA MAGALH√ES DA SILVA                RUA ROSENIL TEIXEIRA DE SOUZA, N 130 0 V            28300000                                                            000058
1000000000000000000000090677700022411                         0000000000000002093400000000002            2  022093      010715000000000000000000000NTN010615000000000000000000000000000000000000000000000000000000000000000100000000000001MARNY DE SOUZA FERNANDES                AVENIDA EUCLIDES PUBEL DE LIMA, N 478 0             28300000                                                            000059
1000000000000000000000090677700022411                         0000000000000002094200000000002            2  022094      010715000000000000000000000NTN010615000000000000000000000000000000000000000000000000000000000000000100000000000001MABEL TOMAZIM DE O. BORGES COELHO       RUA JOS… MARIA DA GAMA, N 1581 0 S√O MAT            28300000                                                            000060
1000000000000000000000090677700022411                         0000000000000002095000000000002            2  022095      010715000000000000000000000NTN010615000000000000000000000000000000000000000000000000000000000000000100000000000001MARIA ELÕDIA GENTILUCE                  AVENIDA EUCLIDES POUBEL DE LIMA, N 639 0            28300000                                                            000061
1000000000000000000000090677700022411                         0000000000000002096900000000002            2  022096      010715000000000000000000000NTN010615000000000000000000000000000000000000000000000000000000000000000100000000000001MARIA HELENA DE MORAES VARGAS           RUA ASTOLFO MUNIZ, N 114 0 S√O MATEUS IT            28300000                                                            000062
1000000000000000000000090677700022411                         0000000000000002097700000000002            2  022097      010715000000000000000000000NTN010615000000000000000000000000000000000000000000000000000000000000000100000000000001MARIA DA CONCEI«√O L. PAULA             RUA BENEDITO NICOLAU, N 94 0 VINHOSA ITA            28300000                                                            000063
1000000000000000000000090677700022411                         0000000000000002098500000000002            2  022098      010715000000000000000000000NTN010615000000000000000000000000000000000000000000000000000000000000000100000000000001NATHALIA COSTA FERREIRA                 RUA SEBASTI√O VASCONCELOS, N 177 0 VINHO            28300000                                                            000064
1000000000000000000000090677700022411                         0000000000000002099300000000002            2  022099      010715000000000000000000000NTN010615000000000000000000000000000000000000000000000000000000000000000100000000000001NELCY CORR A FERNANDES                  AVENIDA EUCLIDES POUBEL DE LIMA, N 478 0            28300000                                                            000065
1000000000000000000000090677700022411                         0000000000000002100000000000002            2  022100      010715000000000000000000000NTN010615000000000000000000000000000000000000000000000000000000000000000100000000000001NÕVIA LOPES PAULA                       RUA BENEDITO NICOLAU, N 94 0 VINHOSA ITA            28300000                                                            000066
1000000000000000000000090677700022411                         0000000000000002101900000000002            2  022101      010715000000000000000000000NTN010615000000000000000000000000000000000000000000000000000000000000000100000000000001PAULO ROBERTO A. ROHEM JUNIOR           RUA J⁄LIO C…ZAR, N 1259 0 S√O MATEUS ITA            28300000                                                            000067
1000000000000000000000090677700022411                         0000000000000002102700000000002            2  022102      010715000000000000000000000NTN010615000000000000000000000000000000000000000000000000000000000000000100000000000001PAULO FOLIGNO FERREIRA                  RUA SEBAST√O VASCONCELOS, N 192 0 VINHOS            28300000                                                            000068
1000000000000000000000090677700022411                         0000000000000002103500000000002            2  022103      010715000000000000000000000NTN010615000000000000000000000000000000000000000000000000000000000000000100000000000001PAULO C…ZAR DA SILVA                    RUA ROSENIL T. DE SOUZA, N 130 0 VINHOSA            28300000                                                            000069
1000000000000000000000090677700022411                         0000000000000002104300000000002            2  022104      010715000000000000000000000NTN010615000000000000000000000000000000000000000000000000000000000000000100000000000001ROSIMERE CRISTINA MUNIZ                 RUA SEBASTI√O VASCONCELOS, N 299 0 VINHO            28300000                                                            000070
1000000000000000000000090677700022411                         0000000000000002105100000000002            2  022105      010715000000000000000000000NTN010615000000000000000000000000000000000000000000000000000000000000000100000000000001SILVANA LOPES PAULA                     RUA BENEDITO NICOLAU, N 94 0 VINHOSA ITA            28300000                                                            000071
1000000000000000000000090677700022411                         0000000000000002106P00000000002            2  022106      010715000000000000000000000NTN010615000000000000000000000000000000000000000000000000000000000000000100000000000001TALITA FINAMORE OLIVEIRA                RUA SEBASTI√O VASCONCELOS, N 299 0 VINHO            28300000                                                            000072
1000000000000000000000090677700022411                         0000000000000002107800000000002            2  022107      010715000000000000000000000NTN010615000000000000000000000000000000000000000000000000000000000000000100000000000001VAMIR GALV√O DA FRAN«A                  RUA LINDOLFO FERREIRA BRANCO, N 26 0 VIN            28300000                                                            000073
1000000000000000000000090677700022411                         0000000000000002108600000000002            2  022108      010715000000000000000000000NTN010615000000000000000000000000000000000000000000000000000000000000000100000000000001CILAINE FERREIRA DA SILVA               RUA ERNESTINO GOMES, N 54 0 VINHOSA ITAP            28300000                                                            000074
1000000000000000000000090677700022411                         0000000000000002109400000000002            2  022109      010715000000000000000000000NTN010615000000000000000000000000000000000000000000000000000000000000000100000000000001SIMARA VIEIRA DE OLIVEIRA               RUA JOAQUIM CAETANO QUERES, N 136 0 GUAR            28300000                                                            000075
1000000000000000000000090677700022411                         0000000000000002110800000000002            2  022110      010715000000000000000000000NTN010615000000000000000000000000000000000000000000000000000000000000000100000000000001MARIA LUZI  F. GON«ALVES DA CRUZ        RUA FRANCISCO FREITAS, N 354 FUNDOS 0 GU            28300000                                                            000076
1000000000000000000000090677700022411                         0000000000000002111600000000002            2  022111      010715000000000000000000000NTN010615000000000000000000000000000000000000000000000000000000000000000100000000000001ROSANE MARIA OLIVEIRA DIAS              RUA CARM…LIA DURAND, N 129 0 GUARIT¡ ITA            28300000                                                            000077
1000000000000000000000090677700022411                         0000000000000002112400000000002            2  022112      010715000000000000000000000NTN010615000000000000000000000000000000000000000000000000000000000000000100000000000001ROSILDA SAINT ' CLAIRDE MORAIS          RUA ASTOLFO FASBENDER, N 121 0 VINHOSA I            28300000                                                            000078
1000000000000000000000090677700022411                         0000000000000002113200000000002            2  022113      010715000000000000000000000NTN010615000000000000000000000000000000000000000000000000000000000000000100000000000001RUTH IRENE PEREIRA CRUZ                 AVENIDA EUCLIDES POUBEL DE LIMA, N 563 0            28300000                                                            000079
1000000000000000000000090677700022411                         0000000000000002114000000000002            2  022114      010715000000000000000000000NTN010615000000000000000000000000000000000000000000000000000000000000000100000000000001S‘NIA DE F¡TIMA DEGLI ESPOSTI           RUA JAIR SILVA DE SOUZA, N 175 0 GUARIT¡            28300000                                                            000080
1000000000000000000000090677700022411                         0000000000000002115900000000002            2  022115      010715000000000000000000000NTN010615000000000000000000000000000000000000000000000000000000000000000100000000000001SILMEIA DE OLIVEIRA PAULA               RUA BENEDITO NICOLAU, N 88 0 VINHOSA ITA            28300000                                                            000081
1000000000000000000000090677700022411                         0000000000000002116700000000002            2  022116      010715000000000000000000000NTN010615000000000000000000000000000000000000000000000000000000000000000100000000000001SAULO GENTILUCI DE OLIVEIRA             AVENIDA EUCLIDES POUBEL DE LIMA, N 639 0            28300000                                                            000082
1000000000000000000000090677700022411                         0000000000000002117500000000002            2  022117      010715000000000000000000000NTN010615000000000000000000000000000000000000000000000000000000000000000100000000000001SOLANGE LOPES PAULA                     RUA BENEDITO NICOLAU, N 94 0 VINHOSA ITA            28300000                                                            000083
1000000000000000000000090677700022411                         0000000000000002118300000000002            2  022118      010715000000000000000000000NTN010615000000000000000000000000000000000000000000000000000000000000000100000000000001LUCIANA SOARES P. DEGLI ESPOSTI         RUA JAIR SILVA SOUZA, N 175 0 GUARIT¡ IT            28300000                                                            000084
1000000000000000000000090677700022411                         0000000000000002119100000000002            2  022119      010715000000000000000000000NTN010615000000000000000000000000000000000000000000000000000000000000000100000000000001LEILA MARIA FERNANDES DE SOUZA          RUA JOEL BERNARDO, N 50 0 GUARIT¡ ITAPER            28300000                                                            000085
1000000000000000000000090677700022411                         0000000000000002120500000000002            2  022120      010715000000000000000000000NTN010615000000000000000000000000000000000000000000000000000000000000000100000000000001SOLANGE MARIA DOS REIS MARTINS          RUA IEDA VIEIRA DA GAMA, N 99 ALTOS 0 VI            28300000                                                            000086
1000000000000000000000090677700022411                         0000000000000002121300000000002            2  022121      010715000000000000000000000NTN010615000000000000000000000000000000000000000000000000000000000000000100000000000001JONAS FOLIGNO FERREIRA                  AVENIDA EUCLIDES POUBEL DE LIMA, N 350 A            28300000                                                            000087
1000000000000000000000090677700022411                         0000000000000002122100000000002            2  022122      010715000000000000000000000NTN010615000000000000000000000000000000000000000000000000000000000000000100000000000001LUIZ ANT‘NIO DE SOUZA                   RUA SEBATI√O VASCONCELOS, N 279 FUNDOS 0            28300000                                                            000088
1000000000000000000000090677700022411                         0000000000000002123P00000000002            2  022123      010715000000000000000000000NTN010615000000000000000000000000000000000000000000000000000000000000000100000000000001ANA PAULA DA SILVA DEGLI ESPOSTI MARQUESRUA ARISTIDES GOMES DO AMORIM, N 542 0 V            28300000                                                            000089
1000000000000000000000090677700022411                         0000000000000002124800000000002            2  022124      010715000000000000000000000NTN010615000000000000000000000000000000000000000000000000000000000000000100000000000001ANT‘NIO CLARET PURIFICATE               RUA VITOR GOLDINHO SAVAN, N 560 0 VALE D            28300000                                                            000090
1000000000000000000000090677700022411                         0000000000000002125600000000002            2  022125      010715000000000000000000000NTN010615000000000000000000000000000000000000000000000000000000000000000100000000000001ALEXANDRE ALVES FONTES                  RUA TOM… DE SOUZA, N 313 0 BOA FORTUNA I            28300000                                                            000091
1000000000000000000000090677700022411                         0000000000000002126400000000002            2  022126      010715000000000000000000000NTN010615000000000000000000000000000000000000000000000000000000000000000100000000000001ALEXANDRO G. PURIFICATE                 RUA GIL VIEIRA, N 1196 0 VALE DO SOL ITA            28300000                                                            000092
1000000000000000000000090677700022411                         0000000000000002127200000000002            2  022127      010715000000000000000000000NTN010615000000000000000000000000000000000000000000000000000000000000000100000000000001BRUNA BAUER CORREA DA CRUZ              RUA FRANCISCO FREITAS RABELO, N 213 0 AE            28300000                                                            000093
1000000000000000000000090677700022411                         0000000000000002128000000000002            2  022128      010715000000000000000000000NTN010615000000000000000000000000000000000000000000000000000000000000000100000000000001CELIO RUBENS DA SILVA                   RUA GIL VIEIRA LEITE, N 1196 0 VALE DO S            28300000                                                            000094
1000000000000000000000090677700022411                         0000000000000002129900000000002            2  022129      010715000000000000000000000NTN010615000000000000000000000000000000000000000000000000000000000000000100000000000001…DIMO DA SILVA FERREIRA                 RUA MOACIR SOARES FARIAS, N 908 0 BOA FO            28300000                                                            000095
1000000000000000000000090677700022411                         0000000000000002130200000000002            2  022130      010715000000000000000000000NTN010615000000000000000000000000000000000000000000000000000000000000000100000000000001FERNANDA MARIA DE OLIVEIRA VILELA       RUA JOS… DO PATROCÕNIO, N 205 0 BOA FORT            28300000                                                            000096
1000000000000000000000090677700022411                         0000000000000002131000000000002            2  022131      010715000000000000000000000NTN010615000000000000000000000000000000000000000000000000000000000000000100000000000001GERALDA MARIA DE JESUS FONSECA          AVENIDA BOA FORTUNA, N 391 0 BOA FORTUNA            28300000                                                            000097
1000000000000000000000090677700022411                         0000000000000002132900000000002            2  022132      010715000000000000000000000NTN010615000000000000000000000000000000000000000000000000000000000000000100000000000001GABRIEL FONSECA VILELA                  RUA JOS… DO PATROCÕNIO, N 205 0 BOA FORT            28300000                                                            000098
1000000000000000000000090677700022411                         0000000000000002133700000000002            2  022133      010715000000000000000000000NTN010615000000000000000000000000000000000000000000000000000000000000000100000000000001ISABEL RABELLO ALONSO                   RUA NOSSA SRA. DA NATIVIDADE, N 08 0 CEN            28300000                                                            000099
1000000000000000000000090677700022411                         0000000000000002134500000000002            2  022134      010715000000000000000000000NTN010615000000000000000000000000000000000000000000000000000000000000000100000000000001H…LIO ALVES CARDOSO                     AVENIDA BOA FORTUNA, N 825 0 BOA FORTUNA            28300000                                                            000100
1000000000000000000000090677700022411                         0000000000000002135300000000002            2  022135      010715000000000000000000000NTN010615000000000000000000000000000000000000000000000000000000000000000100000000000001HEMERSON SILVEIRA DOS SANTOS            RUA ADELINO GARCIA, N 291 0 BOA FORTUNA             28300000                                                            000101
1000000000000000000000090677700022411                         0000000000000002136100000000002            2  022136      010715000000000000000000000NTN010615000000000000000000000000000000000000000000000000000000000000000100000000000001JACINTA DE AZEVEDO C. FONTES            RUA TOM… DE SOUZA, N 313 0 BOA FORTUNA I            28300000                                                            000102
1000000000000000000000090677700022411                         0000000000000002137P00000000002            2  022137      010715000000000000000000000NTN010615000000000000000000000000000000000000000000000000000000000000000100000000000001JO√O DUTRA FERNANDES                    RUA MOACIR S. DE FARIAS, N 908 0 BOA FOR            28300000                                                            000103
1000000000000000000000090677700022411                         0000000000000002138800000000002            2  022138      010715000000000000000000000NTN010615000000000000000000000000000000000000000000000000000000000000000100000000000001JOSILENE APARECIDA S. FERNANDES         RUA MOACIR SOARES DE FARIAS, N 908 0 BOA            28300000                                                            000104
1000000000000000000000090677700022411                         0000000000000002139600000000002            2  022139      010715000000000000000000000NTN010615000000000000000000000000000000000000000000000000000000000000000100000000000001JO√O CARLOS XAVIER BATISTA              AVENIDA BOA FORTUNA, N 391 0 BOA FORTUNA            28300000                                                            000105
1000000000000000000000090677700022411                         0000000000000002140P00000000002            2  022140      010715000000000000000000000NTN010615000000000000000000000000000000000000000000000000000000000000000100000000000001JO√O BATISTA RODRIGUES                  AVENIDA BOA FORTUNA, N 391 0 BOA FORTUNA            28300000                                                            000106
1000000000000000000000090677700022411                         0000000000000002141800000000002            2  022141      010715000000000000000000000NTN010615000000000000000000000000000000000000000000000000000000000000000100000000000001LUCIENE ZANON JACOMINO OLIVEIRA         RUA ADELINO G. BASTOS, N 291 0 BOA FORTU            28300000                                                            000107
1000000000000000000000090677700022411                         0000000000000002142600000000002            2  022142      010715000000000000000000000NTN010615000000000000000000000000000000000000000000000000000000000000000100000000000001MARCELA DE F¡TIMA JACOMINI DE OLIVEIRA  RUA ADELINO GARCIA BASTOS, N 291 0 BOA F            28300000                                                            000108
1000000000000000000000090677700022411                         0000000000000002143400000000002            2  022143      010715000000000000000000000NTN010615000000000000000000000000000000000000000000000000000000000000000100000000000001MARIA JOS… ALVES FARIAS CARDOSO         AVENIDA BOA FORTUNA, N 825 0 BOA FORTUNA            28300000                                                            000109
1000000000000000000000090677700022411                         0000000000000002144200000000002            2  022144      010715000000000000000000000NTN010615000000000000000000000000000000000000000000000000000000000000000100000000000001MARIA ELZIRA DE O. AMARAL               RUA FRANCISCO FARIAS, N 41 0 VALE DO SOL            28300000                                                            000110
1000000000000000000000090677700022411                         0000000000000002145000000000002            2  022145      010715000000000000000000000NTN010615000000000000000000000000000000000000000000000000000000000000000100000000000001MARCIA CRISTINA JACOMINO DE OLIVEIRA    RUA ADELINO GARCIA BASTOS, N 291 0 BOA F            28300000                                                            000111
1000000000000000000000090677700022411                         0000000000000002146900000000002            2  022146      010715000000000000000000000NTN010615000000000000000000000000000000000000000000000000000000000000000100000000000001M‘NICA FARIA CARDOSO                    AVENIDA BOA FORTUNA, N 825 0 BOA FORTUNA            28300000                                                            000112
1000000000000000000000090677700022411                         0000000000000002147700000000002            2  022147      010715000000000000000000000NTN010615000000000000000000000000000000000000000000000000000000000000000100000000000001NILDA MARIA PURIFICATE                  RUA VITOR GOLDINHO, N 560 0 VALE DO SOL             28300000                                                            000113
1000000000000000000000090677700022411                         0000000000000002148500000000002            2  022148      010715000000000000000000000NTN010615000000000000000000000000000000000000000000000000000000000000000100000000000001OSWALDO EUFLAZIO JACOMINO               RUA ADELMO GARCIA BASTOS, N 291 0 BOA FO            28300000                                                            000114
1000000000000000000000090677700022411                         0000000000000002149300000000002            2  022149      010715000000000000000000000NTN010615000000000000000000000000000000000000000000000000000000000000000100000000000001ROSENI G. PUPO                          RUA GIL VIEIRA LEITE, N 1196 0 VALE DO S            28300000                                                            000115
1000000000000000000000090677700022411                         0000000000000002150700000000002            2  022150      010715000000000000000000000NTN010615000000000000000000000000000000000000000000000000000000000000000100000000000001S‘NIA MARIA XAVIER BATISTA              AVENIDA BOA FORTUNA, N 391 0 BOA FORTUNA            28300000                                                            000116
1000000000000000000000090677700022411                         0000000000000002151500000000002            2  022151      010715000000000000000000000NTN010615000000000000000000000000000000000000000000000000000000000000000100000000000001SAULO VIEIRA DE OLIVEIRA                RUA BENEDITO NICOLAU, N 613 0 S√O MATEUS            28300000                                                            000117
1000000000000000000000090677700022411                         0000000000000002152300000000002            2  022152      010715000000000000000000000NTN010615000000000000000000000000000000000000000000000000000000000000000100000000000001VAL…RIA CRISTINA C. PURIFICATE          RUA GIL VIEIRA LEITE, N 1196 0 VALE DO S            28300000                                                            000118
1000000000000000000000090677700022411                         0000000000000002153100000000002            2  022153      010715000000000000000000000NTN010615000000000000000000000000000000000000000000000000000000000000000100000000000001NILSON C…SAR DO NASCIMENTO PEREIRA      AVENIDA ADELINO GARCIA BASTOS, N 285 0 B            28300000                                                            000119
1000000000000000000000090677700022411                         0000000000000002154P00000000002            2  022154      010715000000000000000000000NTN010615000000000000000000000000000000000000000000000000000000000000000100000000000001CRISTINA VAL…RIA DA SILVA               RUA ACAD MICO JOS… LUIZ, N 228 0 VALE DO            28300000                                                            000120
1000000000000000000000090677700022411                         0000000000000002155800000000002            2  022155      010715000000000000000000000NTN010615000000000000000000000000000000000000000000000000000000000000000100000000000001MARIA ISABEL DOS ANJOS PIRES FERREIRA   RUA VITOR GODINHO PAVAN, N 399 FUNDOS 0             28300000                                                            000121
1000000000000000000000090677700022411                         0000000000000002156600000000002            2  022156      010715000000000000000000000NTN010615000000000000000000000000000000000000000000000000000000000000000100000000000001LUCIN…IA LIMA DO NASCIMENTO             RUA ELZIO GALV√O DA FRAN«A, N 10 ALTOS 0            28300000                                                            000122
1000000000000000000000090677700022411                         0000000000000002157400000000002            2  022157      010715000000000000000000000NTN010615000000000000000000000000000000000000000000000000000000000000000100000000000001LUIZA MARIA DA CRUZ DE PAULA            RUA SANTO ANTONIO, N 01 0 NOSSA SRA. DE             28380000                                                            000123
1000000000000000000000090677700022411                         0000000000000002158200000000002            2  022158      010715000000000000000000000NTN010615000000000000000000000000000000000000000000000000000000000000000100000000000001ALMIR JOS… FERNANDES                    SAMBRA 0 SAMBRA ITALVA RJ                           28250000                                                            000124
1000000000000000000000090677700022411                         0000000000000002159000000000002            2  022159      010715000000000000000000000NTN010615000000000000000000000000000000000000000000000000000000000000000100000000000001WEBSTER S. RODRIGUES                    RUA INDEPENDENCIA, N 123 0 CENTRO MURIAÈ            36880000                                                            000125
1000000000000000000000090677700022411                         0000000000000002160400000000002            2  022160      010715000000000000000000000NTN010615000000000000000000000000000000000000000000000000000000000000000100000000000001GEORGIA GON«ALVES PESSANHA              SAMBRA 0 SAMRA ITALVA RJ                            28250000                                                            000126
1000000000000000000000090677700022411                         0000000000000002161200000000002            2  022161      010715000000000000000000000NTN010615000000000000000000000000000000000000000000000000000000000000000100000000000001LEONARDO DUARTE T MPERA                 AV. EUCLIDES POUBEL DE LIMA, N 622 0 S√O            28300000                                                            000127
1000000000000000000000090677700022411                         0000000000000002162000000000002            2  022162      010715000000000000000000000NTN010615000000000000000000000000000000000000000000000000000000000000000100000000000001RENATO JOS… D. E. DA SILVA              RUA PROJETADA COLIBRI, N 173 0 COLIBRI I            28300000                                                            000128
1000000000000000000000090677700022411                         0000000000000002163900000000002            2  022163      010715000000000000000000000NTN010615000000000000000000000000000000000000000000000000000000000000000100000000000001LUIZ MARCOS DE SOARES                   SAMBRA 0 SAMBRA ITALVA RJ                           28250000                                                            000129
1000000000000000000000090677700022411                         0000000000000002164700000000002            2  022164      010715000000000000000000000NTN010615000000000000000000000000000000000000000000000000000000000000000100000000000001ROMUALDO LOPES                          SAMBRA 0 SAMBRA ITALVA RJ                           28250000                                                            000130
1000000000000000000000090677700022411                         0000000000000002165500000000002            2  022165      010715000000000000000000000NTN010615000000000000000000000000000000000000000000000000000000000000000100000000000001LUCIENE DA COSTA MENDES BERNARDO        SAMBRA 0 SAMBRA ITALVA RJ                           28250000                                                            000131
1000000000000000000000090677700022411                         0000000000000002166300000000002            2  022166      010715000000000000000000000NTN010615000000000000000000000000000000000000000000000000000000000000000100000000000001HERMES FRANCISCO DE SOUZA               SAMBRA 0 SAMBRA ITALVA RJ                           28250000                                                            000132
1000000000000000000000090677700022411                         0000000000000002167100000000002            2  022167      010715000000000000000000000NTN010615000000000000000000000000000000000000000000000000000000000000000100000000000001CLARICE JOAQUINA DOS ANJOS MURITO       SAMBRA 0 SAMBRA ITALVA RJ                           28250000                                                            000133
1000000000000000000000090677700022411                         0000000000000002168P00000000002            2  022168      010715000000000000000000000NTN010615000000000000000000000000000000000000000000000000000000000000000100000000000001ADENOR GARCIA DA SILVA FILHO            SAMBRA 0 SAMBRA ITALVA RJ                           28250000                                                            000134
1000000000000000000000090677700022411                         0000000000000002169800000000002            2  022169      010715000000000000000000000NTN010615000000000000000000000000000000000000000000000000000000000000000100000000000001MARIUZA DE F¡TIMA SICÕDIO PINTO FERREIRASAMBRA 0 SAMBRA ITALVA RJ                           28250000                                                            000135
1000000000000000000000090677700022411                         0000000000000002170100000000002            2  022170      010715000000000000000000000NTN010615000000000000000000000000000000000000000000000000000000000000000100000000000001VER‘NICA ROSA DE SOUZA PULIN¡RIO        SAMBRA 0 SAMBRA ITALVA RJ                           28250000                                                            000136
1000000000000000000000090677700022411                         0000000000000002171P00000000002            2  022171      010715000000000000000000000NTN010615000000000000000000000000000000000000000000000000000000000000000100000000000001VALMA ROSA DE SOUZA                     SAMBRA 0 SAMBRA ITALVA RJ                           28250000                                                            000137
1000000000000000000000090677700022411                         0000000000000002172800000000002            2  022172      010715000000000000000000000NTN010615000000000000000000000000000000000000000000000000000000000000000100000000000001IVANIR MENDES                           SAMBRA 0 SAMBRA ITALVA RJ                           28250000                                                            000138
1000000000000000000000090677700022411                         0000000000000002173600000000002            2  022173      010715000000000000000000000NTN010615000000000000000000000000000000000000000000000000000000000000000100000000000001PAULO SERGIO DE MELO SILVA              RUA MANOEL CORREIA, N 260 0 S√O FRANCISC            28300000                                                            000139
1000000000000000000000090677700022411                         0000000000000002174400000000002            2  022174      010715000000000000000000000NTN010615000000000000000000000000000000000000000000000000000000000000000100000000000001RODRIGO DE MELO SILVA                   RUA JOS… BASTOS, N 46 0 NITER”I ITAPERUN            28300000                                                            000140
1000000000000000000000090677700022411                         0000000000000002175200000000002            2  022175      010715000000000000000000000NTN010615000000000000000000000000000000000000000000000000000000000000000100000000000001CONSTRUITA                              NITER”I 0 NITER”I ITAPERUNA RJ                      28300000                                                            000141
1000000000000000000000090677700022411                         0000000000000002176000000000002            2  022176      010715000000000000000000000NTN010615000000000000000000000000000000000000000000000000000000000000000100000000000001CL¡UDIO ANT‘NIO RODRIGUES               RUA NOEMEA, N 136 0 MATADOURO ITAPERUNA             28300000                                                            000142
1000000000000000000000090677700022411                         0000000000000002177900000000002            2  022177      010715000000000000000000000NTN010615000000000000000000000000000000000000000000000000000000000000000100000000000001AGOSTINHO MARIA GUALANDI                ENTRADA DO COLIBRI, N 30 0 COLIBRI ITAPE            28300000                                                            000143
1000000000000000000000090677700022411                         0000000000000002178700000000002            2  022178      010715000000000000000000000NTN010615000000000000000000000000000000000000000000000000000000000000000100000000000001REGINA ZANON JACOMINO GOMES             RUA PROJETADA COLIBRI, N 20 0 COLIBRI IT            28300000                                                            000144
1000000000000000000000090677700022411                         0000000000000002179500000000002            2  022179      010715000000000000000000000NTN010615000000000000000000000000000000000000000000000000000000000000000100000000000001MARIA DE F¡TIMA DEGLI ESPOSTI DA SILVA  RUA PROJETADA COLIBRI, N 173 0 COLIBRI I            28300000                                                            000145
1000000000000000000000090677700022411                         0000000000000002180900000000002            2  022180      010715000000000000000000000NTN010615000000000000000000000000000000000000000000000000000000000000000100000000000001RAIANE APARECIDA DEGLI ESPOSTI DA SILVA RUA PROJETADA COLIBRI, N 173 0 COLIBRI I            28300000                                                            000146
1000000000000000000000090677700022411                         0000000000000002181700000000002            2  022181      010715000000000000000000000NTN010615000000000000000000000000000000000000000000000000000000000000000100000000000001IRACY ANDOLPHI MACHARETH                RUA PROJETADA COLIBRI, N 30 0 COLIBRI IT            28300000                                                            000147
1000000000000000000000090677700022411                         0000000000000002182500000000002            2  022182      010715000000000000000000000NTN010615000000000000000000000000000000000000000000000000000000000000000100000000000001AM…LIA GABRIEL DA SILVA                 RUA DELMA TAVARES DA COSTA, N  130 0 GUA            28300000                                                            000148
1000000000000000000000090677700022411                         0000000000000002183300000000002            2  022183      010715000000000000000000000NTN010615000000000000000000000000000000000000000000000000000000000000000100000000000001ELIAS DEGLI ESPOSTI GUALANDI            RUA FRANCISCO FREITAS, N 427 0 GUARIT¡ I            28300000                                                            000149
1000000000000000000000090677700022411                         0000000000000002184100000000002            2  022184      010715000000000000000000000NTN010615000000000000000000000000000000000000000000000000000000000000000100000000000001IVANIR GALV√O DA FRAN«A                 RUA LINDOLFO FERREIRA BRANCO, N 26 ALTOS            28300000                                                            000150
1000000000000000000000090677700022411                         0000000000000002185P00000000002            2  022185      010715000000000000000000000NTN010615000000000000000000000000000000000000000000000000000000000000000100000000000001GEILZA BOECHAT RAMIRO GOMES             AVENIDA CARM…LIA DURAND, N 213 0 GUARIT¡            28300000                                                            000151
1000000000000000000000090677700022411                         0000000000000002186800000000002            2  022186      010715000000000000000000000NTN010615000000000000000000000000000000000000000000000000000000000000000100000000000001GUILHERME DEGLI ESPOSTI GUALANDI        RUA JOAQUIM CAETANO QUERES, N 171   APT:            28300000                                                            000152
1000000000000000000000090677700022411                         0000000000000002187600000000002            2  022187      010715000000000000000000000NTN010615000000000000000000000000000000000000000000000000000000000000000100000000000001GLAYDIS MALTA CALDAS                    RUA SALUSTIANO, N 691 0 GUARIT¡ ITAPERUN            28300000                                                            000153
1000000000000000000000090677700022411                         0000000000000002188400000000002            2  022188      010715000000000000000000000NTN010615000000000000000000000000000000000000000000000000000000000000000100000000000001JOS… CARLOS ANDOLPHI MACHARETH          RUA SATURNINO GOMES, N 32 0 GUARIT¡ ITAP            28300000                                                            000154
1000000000000000000000090677700022411                         0000000000000002189200000000002            2  022189      010715000000000000000000000NTN010615000000000000000000000000000000000000000000000000000000000000000100000000000001INAVIR GALV√O DA FRAN«A                 RUA LINDOLFO FERREIRA BRANCO, 26 ALTOS 0            28300000                                                            000155
1000000000000000000000090677700022411                         0000000000000002190600000000002            2  022190      010715000000000000000000000NTN010615000000000000000000000000000000000000000000000000000000000000000100000000000001JO√O BATISTA DEGLI ESPOSTI              RUA DELMA TAVARES, 120 0 GUARIT¡ ITAPERU            28300000                                                            000156
1000000000000000000000090677700022411                         0000000000000002191400000000002            2  022191      010715000000000000000000000NTN010615000000000000000000000000000000000000000000000000000000000000000100000000000001JO√O EUDES ALVES DE ALMEIDA             RUA JOAQUIM CAETANO QUERES, N 445 0 GUAR            28300000                                                            000157
1000000000000000000000090677700022411                         0000000000000002192200000000002            2  022192      010715000000000000000000000NTN010615000000000000000000000000000000000000000000000000000000000000000100000000000001JOS… AUGUSTO DEGLI ESPOSTI              RUA JOAQUIM CAETANO QUERES, N 632 0 GUAR            28300000                                                            000158
1000000000000000000000090677700022411                         0000000000000002193000000000002            2  022193      010715000000000000000000000NTN010615000000000000000000000000000000000000000000000000000000000000000100000000000001JOANA D' ARQUE DE O. CALDAS             RUA SALUSTIANOF. BRAGA, N 6911 0 GUARIT¡            28300000                                                            000159
1000000000000000000000090677700022411                         0000000000000002194900000000002            2  022194      010715000000000000000000000NTN010615000000000000000000000000000000000000000000000000000000000000000100000000000001MOZER PIMENTEL BUY                      RUA MARIA CECÕLIA NICOLAU, 198 0 S√O MAT            28300000                                                            000160
1000000000000000000000090677700022411                         0000000000000002195700000000002            2  022195      010715000000000000000000000NTN010615000000000000000000000000000000000000000000000000000000000000000100000000000001LEIA DA SILVA DEGLI ESPOSTI             RUA DELMA TAVARES DA COSTA, N 120 0 GUAR            28300000                                                            000161
1000000000000000000000090677700022411                         0000000000000002196500000000002            2  022196      010715000000000000000000000NTN010615000000000000000000000000000000000000000000000000000000000000000100000000000001MARIA MARGARIDA DE OLIVEIRA SOUZA       RUA JOAQUIM CAETANO QUERES, N 405   APT:            28300000                                                            000162
1000000000000000000000090677700022411                         0000000000000002197300000000002            2  022197      010715000000000000000000000NTN010615000000000000000000000000000000000000000000000000000000000000000100000000000001MARTA APARECIDA DEGLI ESPOSTI GUALANDI  RUA JOAQUIM CAETANO QUERES, N 171 0 GUAR            28300000                                                            000163
1000000000000000000000090677700022411                         0000000000000002198100000000002            2  022198      010715000000000000000000000NTN010615000000000000000000000000000000000000000000000000000000000000000100000000000001M‘NICA ESTER GUALANDI                   RUA JOAQUIM CAETANO QUERES, N 382 0 GUAR            28300000                                                            000164
1000000000000000000000090677700022411                         0000000000000002199P00000000002            2  022199      010715000000000000000000000NTN010615000000000000000000000000000000000000000000000000000000000000000100000000000001HAMILTON MUNIZ DE FREITAS               RUA ALAGOAS, N 161 APTO 101 0 LIONS ITAP            28300000                                                            000165
1000000000000000000000090677700022411                         0000000000000002200700000000002            2  022200      010715000000000000000000000NTN010615000000000000000000000000000000000000000000000000000000000000000100000000000001NILZA HELENA PALOTTI                    RUA CARMO FRANCISCO TOMAZINE, N 22 0 GUA            28300000                                                            000166
1000000000000000000000090677700022411                         0000000000000002201500000000002            2  022201      010715000000000000000000000NTN010615000000000000000000000000000000000000000000000000000000000000000100000000000001ROSIMAR DEGLI ESPOSTI GUALANDI ALMEIDA  RUA JOAQUIM CAETANO QUERES, N 445 0 GUAR            28300000                                                            000167
1000000000000000000000090677700022411                         0000000000000002202300000000002            2  022202      010715000000000000000000000NTN010615000000000000000000000000000000000000000000000000000000000000000100000000000001ROBSON CALDAS                           RUA SALUSTIANO F. BRAGA, N 691 0 GUARIT¡            28300000                                                            000168
1000000000000000000000090677700022411                         0000000000000002203100000000002            2  022203      010715000000000000000000000NTN010615000000000000000000000000000000000000000000000000000000000000000100000000000001REGINALDO DE OLIVEIRA CALDAS            RUA SALUSTIANO F. BRAGA, N 691 0 GUARIT¡            28300000                                                            000169
1000000000000000000000090677700022411                         0000000000000002204P00000000002            2  022204      010715000000000000000000000NTN010615000000000000000000000000000000000000000000000000000000000000000100000000000001TERESINHA GUALANDI ROSA                 RUA JOAQUIM CAETANO QUERES, N 445 0 GUAR            28300000                                                            000170
1000000000000000000000090677700022411                         0000000000000002205800000000002            2  022205      010715000000000000000000000NTN010615000000000000000000000000000000000000000000000000000000000000000100000000000001WILZA MARIA G. MONTEIRO                 RUA CARMO FRANCISCO TOMAZINE, N 76 0 GUA            28300000                                                            000171
1000000000000000000000090677700022411                         0000000000000002206600000000002            2  022206      010715000000000000000000000NTN010615000000000000000000000000000000000000000000000000000000000000000100000000000001WELLINGTON GON«ALVES FIGUEIRA           RUA CAM…LIA DURAND 0 GUARIT¡ ITAPERUNA R            28300000                                                            000172
1000000000000000000000090677700022411                         0000000000000002207400000000002            2  022207      010715000000000000000000000NTN010615000000000000000000000000000000000000000000000000000000000000000100000000000001FERNANDO ANT‘NIO GUALANDI               RUA JOAQUIM CAETANO QUERES, N 93 0 GUARI            28300000                                                            000173
1000000000000000000000090677700022411                         0000000000000002208200000000002            2  022208      010715000000000000000000000NTN010615000000000000000000000000000000000000000000000000000000000000000100000000000001SUELEN APARECIDA DE OLIVEIRA            RUA JOAQUIM CAETANO QUERES, N 522 0 GUAR            28300000                                                            000174
1000000000000000000000090677700022411                         0000000000000002209000000000002            2  022209      010715000000000000000000000NTN010615000000000000000000000000000000000000000000000000000000000000000100000000000001RAFAEL ZANELLI LOPES                    RUA RUBENS GARCIA BASTOS, N 79 0 CEHAB I            28300000                                                            000175
1000000000000000000000090677700022411                         0000000000000002210400000000002            2  022210      010715000000000000000000000NTN010615000000000000000000000000000000000000000000000000000000000000000100000000000001RENATO VIANA MOREIRA                    RUA PROFESSORA IRINEIA, N 168 0 CEHAB IT            28300000                                                            000176
1000000000000000000000090677700022411                         0000000000000002211200000000002            2  022211      010715000000000000000000000NTN010615000000000000000000000000000000000000000000000000000000000000000100000000000001FILOMENA MARIA DE CASTRO                RUA JOS… MENDES MARTINS 0 CEHAB ITAPERUN            28300000                                                            000177
1000000000000000000000090677700022411                         0000000000000002212000000000002            2  022212      010715000000000000000000000NTN010615000000000000000000000000000000000000000000000000000000000000000100000000000001LILIA MARCIA ALBINA DE JESUS RAMIRO     RUA ANT‘NIO ROSSI BASTOS, N 113 0 CEHAB             28300000                                                            000178
1000000000000000000000090677700022411                         0000000000000002213900000000002            2  022213      010715000000000000000000000NTN010615000000000000000000000000000000000000000000000000000000000000000100000000000001PAULO GAMA MOREIRA                      RUA ANT‘NIO ROSSI BASTOS, N 143 ALTOS 0             28300000                                                            000179
1000000000000000000000090677700022411                         0000000000000002214700000000002            2  022214      010715000000000000000000000NTN010615000000000000000000000000000000000000000000000000000000000000000100000000000001AILTON DE OLIVEIRA PIRES                RUA ZEARINO VIEIRA BRUM, N 64 0 CEHAB IT            28300000                                                            000180
1000000000000000000000090677700022411                         0000000000000002215500000000002            2  022215      010715000000000000000000000NTN010615000000000000000000000000000000000000000000000000000000000000000100000000000001VILMA COUTO MONTEIRO                    RUA ZEARINO VIEIRA BRUM, N 124 0 CEHAB I            28300000                                                            000181
1000000000000000000000090677700022411                         0000000000000002216300000000002            2  022216      010715000000000000000000000NTN010615000000000000000000000000000000000000000000000000000000000000000100000000000001F¡BIO BADAR” NOGUEIRA DA SILVA          RUA ZEARINO VIEIRA BRUM, N 102 0 CEHAB I            28300000                                                            000182
1000000000000000000000090677700022411                         0000000000000002217100000000002            2  022217      010715000000000000000000000NTN010615000000000000000000000000000000000000000000000000000000000000000100000000000001MARCELO COSTA BELIENE                   RUA ZEARINO VIEIRA BRUM, N 38 0 CEHAB IT            28300000                                                            000183
1000000000000000000000090677700022411                         0000000000000002218P00000000002            2  022218      010715000000000000000000000NTN010615000000000000000000000000000000000000000000000000000000000000000100000000000001TEREZINHA COSTA BELIENE                 RUA ZEARINO VIEIRA BRUM 0 CEHAB ITAPERUN            28300000                                                            000184
1000000000000000000000090677700022411                         0000000000000002219800000000002            2  022219      010715000000000000000000000NTN010615000000000000000000000000000000000000000000000000000000000000000100000000000001GILBERTO DA SILVA FERNANDES             RUA JOS… DE ASSIS BARBOSA, N 1523 0 CEHA            28300000                                                            000185
1000000000000000000000090677700022411                         0000000000000002220100000000002            2  022220      010715000000000000000000000NTN010615000000000000000000000000000000000000000000000000000000000000000100000000000001JOS… VERÕSSIMO DA SILVA FILHO           RUA SUSSENA CHAIA SARDELA, N 55 0 CEHAB             28300000                                                            000186
1000000000000000000000090677700022411                         0000000000000002221P00000000002            2  022221      010715000000000000000000000NTN010615000000000000000000000000000000000000000000000000000000000000000100000000000001REGINA MARIA SEP⁄LVIDA                  RUA JOS… MAXIMILIANO DA SILVEIRA, 176 BA            28300000                                                            000187
1000000000000000000000090677700022411                         0000000000000002222800000000002            2  022222      010715000000000000000000000NTN010615000000000000000000000000000000000000000000000000000000000000000100000000000001VANICE XAVIER GOMES                     RUA PASTOR ELIAS VADAL, N 241 0 CEHAB IT            28300000                                                            000188
1000000000000000000000090677700022411                         0000000000000002223600000000002            2  022223      010715000000000000000000000NTN010615000000000000000000000000000000000000000000000000000000000000000100000000000001DOUGLAS ZANELLI LOPES                   RUA JOS… MAXIMILIANO DA SILVEIRA, N 148             28300000                                                            000189
1000000000000000000000090677700022411                         0000000000000002224400000000002            2  022224      010715000000000000000000000NTN010615000000000000000000000000000000000000000000000000000000000000000100000000000001NICE MARIA ZANELLI LOPES                RUA JOS… MAXIMILIANO DA SILVEIRA, N 148             28300000                                                            000190
1000000000000000000000090677700022411                         0000000000000002225200000000002            2  022225      010715000000000000000000000NTN010615000000000000000000000000000000000000000000000000000000000000000100000000000001VERA L⁄CIA RODRIGUES BARRETO ZANELLI    RUA JOS… MAXIMILIANO DA SILVEIRA, 148 AL            28300000                                                            000191
1000000000000000000000090677700022411                         0000000000000002226000000000002            2  022226      010715000000000000000000000NTN010615000000000000000000000000000000000000000000000000000000000000000100000000000001SERGIO MURILO ZANELLI                   BR 356 ZANELLI DIESEL - EM FRENTE A REDE            28300000                                                            000192
1000000000000000000000090677700022411                         0000000000000002227900000000002            2  022227      010715000000000000000000000NTN010615000000000000000000000000000000000000000000000000000000000000000100000000000001IVANETE SANTOS DIAS                     RUA VICENTE CELESTINO, 298 0 S√O MATEUS             28300000                                                            000193
1000000000000000000000090677700022411                         0000000000000002228700000000002            2  022228      010715000000000000000000000NTN010615000000000000000000000000000000000000000000000000000000000000000100000000000001ANA EMÕLIA BORGES PIMENTEL              RUA ASTOLFO  MUNIZ, N 259 0 S√O MATEUS I            28300000                                                            000194
1000000000000000000000090677700022411                         0000000000000002229500000000002            2  022229      010715000000000000000000000NTN010615000000000000000000000000000000000000000000000000000000000000000100000000000001ANA L⁄CIA BARBOSA PURIFICATE            RUA ALBERTINA DE SOUZA PEREIRA, N 86 0 S            28300000                                                            000195
1000000000000000000000090677700022411                         0000000000000002230900000000002            2  022230      010715000000000000000000000NTN010615000000000000000000000000000000000000000000000000000000000000000100000000000001ADEMIR BUY FERREIRA                     RUA MARIA CECÕLIA NICOLAU, N 198 0 S√O M            28300000                                                            000196
1000000000000000000000090677700022411                         0000000000000002231700000000002            2  022231      010715000000000000000000000NTN010615000000000000000000000000000000000000000000000000000000000000000100000000000001CAUBÕ GAMA VIEIRA                       RUA MARIA CECÕLIA NICOLAU, N 237 0 S√O M            28300000                                                            000197
1000000000000000000000090677700022411                         0000000000000002232500000000002            2  022232      010715000000000000000000000NTN010615000000000000000000000000000000000000000000000000000000000000000100000000000001CONCEI«√O APARECIDA PEREIRA GUALANDI    RUA ASTROGILDO O. POUBEL 0 S√O MATHEUS I            28300000                                                            000198
1000000000000000000000090677700022411                         0000000000000002233300000000002            2  022233      010715000000000000000000000NTN010615000000000000000000000000000000000000000000000000000000000000000100000000000001CORINA PIMENTEL ESCANO                  RUA MARIA CECÕLIA NICOLAU, N 198 0 S√O M            28300000                                                            000199
1000000000000000000000090677700022411                         0000000000000002234100000000002            2  022234      010715000000000000000000000NTN010615000000000000000000000000000000000000000000000000000000000000000100000000000001CELMIRA MARIA DA CONCEI«√O              RUA JOS¡ DA SILVA ALMEIDA, N 189 0 S√O M            28300000                                                            000200
1000000000000000000000090677700022411                         0000000000000002235P00000000002            2  022235      010715000000000000000000000NTN010615000000000000000000000000000000000000000000000000000000000000000100000000000001EFIG NIA A. O. GUIMAR√ES                RUA SANTA RITA, N 76 0 S√O MATEUS ITAPER            28300000                                                            000201
1000000000000000000000090677700022411                         0000000000000002236800000000002            2  022236      010715000000000000000000000NTN010615000000000000000000000000000000000000000000000000000000000000000100000000000001ELZA DA SILVA ROSA                      RUA MARIA CECÕLIA NICOLAU 0 S√O MATEUS I            28300000                                                            000202
1000000000000000000000090677700022411                         0000000000000002237600000000002            2  022237      010715000000000000000000000NTN010615000000000000000000000000000000000000000000000000000000000000000100000000000001ENGRACIA ROSA DE S. NUNES               AVENIDA ASTROGILDO POUBEL, N 279 0 S√O M            28300000                                                            000203
1000000000000000000000090677700022411                         0000000000000002238400000000002            2  022238      010715000000000000000000000NTN010615000000000000000000000000000000000000000000000000000000000000000100000000000001¬NGELA MARIA DE SOUZA                   RUA JOS… MARIA DA GAMA, N 1659 0 S√O MAT            28300000                                                            000204
1000000000000000000000090677700022411                         0000000000000002239200000000002            2  022239      010715000000000000000000000NTN010615000000000000000000000000000000000000000000000000000000000000000100000000000001ANGELO DA SILVA ALVES                   RUA VICENTE CELESTINO, N 298 0 S√O MATHE            28300000                                                            000205
1000000000000000000000090677700022411                         0000000000000002240600000000002            2  022240      010715000000000000000000000NTN010615000000000000000000000000000000000000000000000000000000000000000100000000000001ADILTON JACOMINE                        RUA OSCAR INACIO RODRIGUES, N 140 0 S√O             28300000                                                            000206
1000000000000000000000090677700022411                         0000000000000002241400000000002            2  022241      010715000000000000000000000NTN010615000000000000000000000000000000000000000000000000000000000000000100000000000001ARLEIDA NUNES DE PADUA MARQUEZ          RUA VICENTE CELESTINO, N 302 0 S√O MATHE            28300000                                                            000207
1000000000000000000000090677700022411                         0000000000000002242200000000002            2  022242      010715000000000000000000000NTN010615000000000000000000000000000000000000000000000000000000000000000100000000000001ADEMIR BRAGA PIMENTEL                   RUA VICENTE CELESTINO, N 321 0 S√O MATHE            28300000                                                            000208
1000000000000000000000090677700022411                         0000000000000002243000000000002            2  022243      010715000000000000000000000NTN010615000000000000000000000000000000000000000000000000000000000000000100000000000001BEATRIZ BEIRAL SATOLO                   RUA NOSSA SENHORA APARECIDA, N 20 0 S√O             28300000                                                            000209
1000000000000000000000090677700022411                         0000000000000002244900000000002            2  022244      010715000000000000000000000NTN010615000000000000000000000000000000000000000000000000000000000000000100000000000001MARLENE CRUZ MEDEIROS                   AVENIDA EUCLIDES POUBEL DE LIMA, N 574 0            28300000                                                            000210
1000000000000000000000090677700022411                         0000000000000002245700000000002            2  022245      010715000000000000000000000NTN010615000000000000000000000000000000000000000000000000000000000000000100000000000001F¡BIA APARECIDA ALVES PIRES             RUA CARMELI DURAND, N 196 0 GUARIT¡ ITAP            28300000                                                            000211
1000000000000000000000090677700022411                         0000000000000002246500000000002            2  022246      010715000000000000000000000NTN010615000000000000000000000000000000000000000000000000000000000000000100000000000001ROMILDA DOS SANTOS DIAS                 RUA VICENTE CELESTINO, 298 0 S√O MATEUS             28300000                                                            000212
1000000000000000000000090677700022411                         0000000000000002247300000000002            2  022247      010715000000000000000000000NTN010615000000000000000000000000000000000000000000000000000000000000000100000000000001RITA DE C¡SSIA BORGES BOECHAT           RUA GERALDA VASCONCELOS, N 363 0 S√O MAT            28300000                                                            000213
1000000000000000000000090677700022411                         0000000000000002248100000000002            2  022248      010715000000000000000000000NTN010615000000000000000000000000000000000000000000000000000000000000000100000000000001MARIA C…LIA DIAS ROHEM                  RUA JOS… MARIA DA GAMA, N 86 0 S√O MATEU            28300000                                                            000214
1000000000000000000000090677700022411                         0000000000000002249P00000000002            2  022249      010715000000000000000000000NTN010615000000000000000000000000000000000000000000000000000000000000000100000000000001ANA ISABEL DA CRUZ                      PRA«A FRANCISCO ROSA DA SILVA, N 21 0 BO            28388000                                                            000215
1000000000000000000000090677700022411                         0000000000000002250300000000002            2  022250      010715000000000000000000000NTN010615000000000000000000000000000000000000000000000000000000000000000100000000000001ELÕZIA MARIA DA SILVEIRA FR”IS          ED. FRANCISCO CARLOS DE OLIVEIRA, N 21 0            28388000                                                            000216
1000000000000000000000090677700022411                         0000000000000002251100000000002            2  022251      010715000000000000000000000NTN010615000000000000000000000000000000000000000000000000000000000000000100000000000001MARIA LUCIMAR DE SOUZA MOIS…IS SEURINO  RUA BOM JESUS, N 567 0 AEROPORTO ITAPERU            28300000                                                            000217
1000000000000000000000090677700022411                         0000000000000002252P00000000002            2  022252      010715000000000000000000000NTN010615000000000000000000000000000000000000000000000000000000000000000100000000000001MARCOS ANT‘NIO GAZAL GUIMAR√ES          AVENIDA ERNANE DO AMARAL PEIXOTO, N 822             28300000                                                            000218
1000000000000000000000090677700022411                         0000000000000002253800000000002            2  022253      010715000000000000000000000NTN010615000000000000000000000000000000000000000000000000000000000000000100000000000001BEATRIZ DA CONCEI«√O SILVA              RUA PEDRO ABREU CARDOSO, N 906, APT: 1 0            28300000                                                            000219
1000000000000000000000090677700022411                         0000000000000002254600000000002            2  022254      010715000000000000000000000NTN010615000000000000000000000000000000000000000000000000000000000000000100000000000001EVA DE F¡TIMA DA SILVA FERNANDES        RUA SALUSTIANO FERREIRA BRAGA, N 166 0 G            28300000                                                            000220
1000000000000000000000090677700022411                         0000000000000002255400000000002            2  022255      010715000000000000000000000NTN010615000000000000000000000000000000000000000000000000000000000000000100000000000001VERA L⁄CIA RODRIGUES VIEIRA             ROZENIL TEIXEIRA DE SOUZA, N 08 0 VINHOS            28300000                                                            000221
1000000000000000000000090677700022411                         0000000000000002256200000000002            2  022256      010715000000000000000000000NTN010615000000000000000000000000000000000000000000000000000000000000000100000000000001SANDRA REGINA DE OLIVEIRA COQUITO GUIMARAVENIDA ERNANE DO AMARAL PEIXOTO, N 822             28300000                                                            000222
1000000000000000000000090677700022411                         0000000000000002257000000000002            2  022257      010715000000000000000000000NTN010615000000000000000000000000000000000000000000000000000000000000000100000000000001NEIMAR SALGADO DE SOUZA                 RUA IZIDORO C¬NDIDO FERREIRA, N 300 0 CE            28300000                                                            000223
1000000000000000000000090677700022411                         0000000000000002258900000000002            2  022258      010715000000000000000000000NTN010615000000000000000000000000000000000000000000000000000000000000000100000000000001SABRINA KELY B. DE SOUZA                RUA VICTOR GODINHO PAVAN, N 894 0 VALE D            28300000                                                            000224
1000000000000000000000090677700022411                         0000000000000002259700000000002            2  022259      010715000000000000000000000NTN010615000000000000000000000000000000000000000000000000000000000000000100000000000001DELMA SOARES PESSANHA                   SAMBRA 0 SAMBRA ITALVA RJ                           1                                                                   000225
1000000000000000000000090677700022411                         0000000000000002260000000000002            2  022260      010715000000000000000000000NTN010615000000000000000000000000000000000000000000000000000000000000000100000000000001DEJAIR SOARES ROSA                      SAMBRA 0 SAMBRA ITALVA RJ                           1                                                                   000226
1000000000000000000000090677700022411                         0000000000000002261900000000002            2  022261      010715000000000000000000000NTN010615000000000000000000000000000000000000000000000000000000000000000100000000000001LUIZ MARCOS DE SOUZA                    CAPELA NOSSA SENHORA DA PENHA 0 SAMBRA I            1                                                                   000227
1000000000000000000000090677700022411                         0000000000000002262700000000002            2  022262      010715000000000000000000000NTN010615000000000000000000000000000000000000000000000000000000000000000100000000000001MANOEL SOARES PESSANHA                  SAMBRA 0 SAMBRA ITALVA RJ                           1                                                                   000228
1000000000000000000000090677700022411                         0000000000000002263500000000002            2  022263      010715000000000000000000000NTN010615000000000000000000000000000000000000000000000000000000000000000100000000000001JOEL AGUIAR BRANCO                      CAPELA DO SAMBRA 0 SAMBRA ITALVA RJ                 1                                                                   000229
1000000000000000000000090677700022411                         0000000000000002264300000000002            2  022264      010715000000000000000000000NTN010615000000000000000000000000000000000000000000000000000000000000000100000000000001MARCELO PIMENTEL MACHADO                RUA ALBUTINA DE SOUZA PEREIRA, 45 0 S√O             28300000                                                            000230
1000000000000000000000090677700022411                         0000000000000002265100000000002            2  022265      010715000000000000000000000NTN010615000000000000000000000000000000000000000000000000000000000000000100000000000001MARIA DE F¡TIMA GAMA ROHEM              PEDRO ABREU CARDOSO, 195 0 S√O MATEUS IT            28300000                                                            000231
1000000000000000000000090677700022411                         0000000000000002266P00000000002            2  022266      010715000000000000000000000NTN010615000000000000000000000000000000000000000000000000000000000000000100000000000001MARIA FRANCISCA CORREA                  RUA ALBERTINA DE SOUZA PEREIRA, 67 0 S√O            28300000                                                            000232
1000000000000000000000090677700022411                         0000000000000002267800000000002            2  022267      010715000000000000000000000NTN010615000000000000000000000000000000000000000000000000000000000000000100000000000001HERMANY CARNEIRO RODRIGUES              RUA DEZ DE MAIO, N 491 0 CENTRO ITAPERUN            28300000                                                            000233
1000000000000000000000090677700022411                         0000000000000002268600000000002            2  022268      010715000000000000000000000NTN010615000000000000000000000000000000000000000000000000000000000000000100000000000001MARIA IZABEL D. E. GUALANDI             RUA IZALTINA HON”RIO, S/N 0 S√O MATEUS I            28300000                                                            000234
1000000000000000000000090677700022411                         0000000000000002269400000000002            2  022269      010715000000000000000000000NTN010615000000000000000000000000000000000000000000000000000000000000000100000000000001VANDA OLIVEIRA SOUZA                    RUA JOAQUIM CAETANO QUERES, N 430 0 GUAR            28300000                                                            000235
1000000000000000000000090677700022411                         0000000000000002270800000000002            2  022270      010715000000000000000000000NTN010615000000000000000000000000000000000000000000000000000000000000000100000000000001ADRIANA CRISTINA S. PRATA SILVA         RUA SEBASTI√O JOS… NEVES, N 416 0 GUARIT            28300000                                                            000236
1000000000000000000000090677700022411                         0000000000000002271600000000002            2  022271      010715000000000000000000000NTN010615000000000000000000000000000000000000000000000000000000000000000100000000000001ANA PAULA BARTOLAZZI NUNES SOUZA        RUA ERNESTINA GOMES, N 169 0 VINHOSA ITA            28300000                                                            000237
1000000000000000000000090677700022411                         0000000000000002272400000000002            2  022272      010715000000000000000000000NTN010615000000000000000000000000000000000000000000000000000000000000000100000000000001EDNELSON NOVAIS MACEDO                  RUA VINHOSA, N 627 0 VINHOSA ITAPERUNA R            28300000                                                            000238
1000000000000000000000090677700022411                         0000000000000002273200000000002            2  022273      010715000000000000000000000NTN010615000000000000000000000000000000000000000000000000000000000000000100000000000001MARIA BEATRIZ DE SOUZA MACHADO          RUA BENEDITO NICOLAU, N 34 0 S√O MATHEUS            28300000                                                            000239
1000000000000000000000090677700022411                         0000000000000002274000000000002            2  022274      010715000000000000000000000NTN010615000000000000000000000000000000000000000000000000000000000000000100000000000001JO√O GENOARIO NETO                      RUA JO√O EMÕLIO BOECHAT, N 310 0 VINHOSA            28300000                                                            000240
1000000000000000000000090677700022411                         0000000000000002275900000000002            2  022275      010715000000000000000000000NTN010615000000000000000000000000000000000000000000000000000000000000000100000000000001LUCIANA DE MORAES DA SILVA              RUA DR. ARIASTO DE LANNES RABELLLO 0 CEN            28380000                                                            000241
1000000000000000000000090677700022411                         0000000000000002276700000000002            2  022276      010715000000000000000000000NTN010615000000000000000000000000000000000000000000000000000000000000000100000000000001CATARINA ROSA DA SILVA                  AVENIDA ANT‘NIO DA SILVA CAMPOS, N 22 0             28380000                                                            000242
1000000000000000000000090677700022411                         0000000000000002277500000000002            2  022277      010715000000000000000000000NTN010615000000000000000000000000000000000000000000000000000000000000000100000000000001ADILSON DA SILVEIRA VALENTIM            RUA HUDSON SILGUEIRA DA FONSECA, N 32 0             28388000                                                            000243
1000000000000000000000090677700022411                         0000000000000002278300000000002            2  022278      010715000000000000000000000NTN010615000000000000000000000000000000000000000000000000000000000000000100000000000001EVA COSTA DA SILVEIRA VALENTIM          RUA NAIR DE OLIVEIRA, N 14 0 BOM JESUS D            28388000                                                            000244
1000000000000000000000090677700022411                         0000000000000002279100000000002            2  022279      010715000000000000000000000NTN010615000000000000000000000000000000000000000000000000000000000000000100000000000001BEATRIZ DA SILVA IN¡CIO                 RUA BENEDITO NICOLAL, N 582 0 S√O MATHEU            28300000                                                            000245
1000000000000000000000090677700022411                         0000000000000002280500000000002            2  022280      010715000000000000000000000NTN010615000000000000000000000000000000000000000000000000000000000000000100000000000001VALDEIA DOS SANTOS BORGES               RUA SALUSTIANO FERREIRA BRAGA, N 278 0 G            28300000                                                            000246
1000000000000000000000090677700022411                         0000000000000002281300000000002            2  022281      010715000000000000000000000NTN010615000000000000000000000000000000000000000000000000000000000000000100000000000001PATRICIA TRAVASSO RIBAS DE PAULO        RUA ERNESTINA GOMES, N 223 0 VINHOSA ITA            28300000                                                            000247
1000000000000000000000090677700022411                         0000000000000002282100000000002            2  022282      010715000000000000000000000NTN010615000000000000000000000000000000000000000000000000000000000000000100000000000001CELESTI DEGLI ESPOSTI                   RUA JOAQUIM CAETANO QUERES, N 436 0 GUAR            28300000                                                            000248
1000000000000000000000090677700022411                         0000000000000002283P00000000002            2  022283      010715000000000000000000000NTN010615000000000000000000000000000000000000000000000000000000000000000100000000000001JOS… FERNANDO BRAGA COSTA                ZONA RURAL 0 JABUTICABA ITAPERUNA RJ               28300000                                                            000249
